{
  "_format": "hh-sol-artifact-1",
  "contractName": "MetaplantsPass",
  "sourceName": "contracts/MetaplantsPass.sol",
  "abi": [
    {
      "inputs": [
        {
          "internalType": "string",
          "name": "name_",
          "type": "string"
        },
        {
          "internalType": "string",
          "name": "symbol_",
          "type": "string"
        }
      ],
      "stateMutability": "nonpayable",
      "type": "constructor"
    },
    {
      "inputs": [
        {
          "internalType": "address",
          "name": "operator",
          "type": "address"
        }
      ],
      "name": "OperatorNotAllowed",
      "type": "error"
    },
    {
      "anonymous": false,
      "inputs": [
        {
          "indexed": true,
          "internalType": "address",
          "name": "account",
          "type": "address"
        },
        {
          "indexed": true,
          "internalType": "address",
          "name": "operator",
          "type": "address"
        },
        {
          "indexed": false,
          "internalType": "bool",
          "name": "approved",
          "type": "bool"
        }
      ],
      "name": "ApprovalForAll",
      "type": "event"
    },
    {
      "anonymous": false,
      "inputs": [
        {
          "indexed": false,
          "internalType": "address",
          "name": "sender",
          "type": "address"
        },
        {
          "indexed": false,
          "internalType": "uint256",
          "name": "tokenId",
          "type": "uint256"
        }
      ],
      "name": "Mint",
      "type": "event"
    },
    {
      "anonymous": false,
      "inputs": [
        {
          "indexed": true,
          "internalType": "address",
          "name": "previousOwner",
          "type": "address"
        },
        {
          "indexed": true,
          "internalType": "address",
          "name": "newOwner",
          "type": "address"
        }
      ],
      "name": "OwnershipTransferred",
      "type": "event"
    },
    {
      "anonymous": false,
      "inputs": [
        {
          "indexed": false,
          "internalType": "address",
          "name": "",
          "type": "address"
        },
        {
          "indexed": false,
          "internalType": "address[]",
          "name": "",
          "type": "address[]"
        },
        {
          "indexed": false,
          "internalType": "uint256[]",
          "name": "",
          "type": "uint256[]"
        },
        {
          "indexed": false,
          "internalType": "uint256[]",
          "name": "",
          "type": "uint256[]"
        },
        {
          "indexed": false,
          "internalType": "bytes",
          "name": "",
          "type": "bytes"
        }
      ],
      "name": "SafeBatchDistributeFrom",
      "type": "event"
    },
    {
      "anonymous": false,
      "inputs": [
        {
          "indexed": true,
          "internalType": "address",
          "name": "operator",
          "type": "address"
        },
        {
          "indexed": true,
          "internalType": "address",
          "name": "from",
          "type": "address"
        },
        {
          "indexed": true,
          "internalType": "address",
          "name": "to",
          "type": "address"
        },
        {
          "indexed": false,
          "internalType": "uint256[]",
          "name": "ids",
          "type": "uint256[]"
        },
        {
          "indexed": false,
          "internalType": "uint256[]",
          "name": "values",
          "type": "uint256[]"
        }
      ],
      "name": "TransferBatch",
      "type": "event"
    },
    {
      "anonymous": false,
      "inputs": [
        {
          "indexed": true,
          "internalType": "address",
          "name": "operator",
          "type": "address"
        },
        {
          "indexed": true,
          "internalType": "address",
          "name": "from",
          "type": "address"
        },
        {
          "indexed": true,
          "internalType": "address",
          "name": "to",
          "type": "address"
        },
        {
          "indexed": false,
          "internalType": "uint256",
          "name": "id",
          "type": "uint256"
        },
        {
          "indexed": false,
          "internalType": "uint256",
          "name": "value",
          "type": "uint256"
        }
      ],
      "name": "TransferSingle",
      "type": "event"
    },
    {
      "anonymous": false,
      "inputs": [
        {
          "indexed": false,
          "internalType": "string",
          "name": "value",
          "type": "string"
        },
        {
          "indexed": true,
          "internalType": "uint256",
          "name": "id",
          "type": "uint256"
        }
      ],
      "name": "URI",
      "type": "event"
    },
    {
      "anonymous": false,
      "inputs": [
        {
          "indexed": false,
          "internalType": "address",
          "name": "sender",
          "type": "address"
        },
        {
          "indexed": false,
          "internalType": "uint256",
          "name": "tokenId",
          "type": "uint256"
        }
      ],
      "name": "UpdateTokenURI",
      "type": "event"
    },
    {
      "inputs": [],
      "name": "OPERATOR_FILTER_REGISTRY",
      "outputs": [
        {
          "internalType": "contract IOperatorFilterRegistry",
          "name": "",
          "type": "address"
        }
      ],
      "stateMutability": "view",
      "type": "function"
    },
    {
      "inputs": [
        {
          "internalType": "address",
          "name": "account",
          "type": "address"
        },
        {
          "internalType": "uint256",
          "name": "id",
          "type": "uint256"
        }
      ],
      "name": "balanceOf",
      "outputs": [
        {
          "internalType": "uint256",
          "name": "",
          "type": "uint256"
        }
      ],
      "stateMutability": "view",
      "type": "function"
    },
    {
      "inputs": [
        {
          "internalType": "address[]",
          "name": "accounts",
          "type": "address[]"
        },
        {
          "internalType": "uint256[]",
          "name": "ids",
          "type": "uint256[]"
        }
      ],
      "name": "balanceOfBatch",
      "outputs": [
        {
          "internalType": "uint256[]",
          "name": "",
          "type": "uint256[]"
        }
      ],
      "stateMutability": "view",
      "type": "function"
    },
    {
      "inputs": [],
      "name": "deleteDefaultRoyalty",
      "outputs": [],
      "stateMutability": "nonpayable",
      "type": "function"
    },
    {
      "inputs": [],
      "name": "getCounter",
      "outputs": [
        {
          "internalType": "uint256",
          "name": "",
          "type": "uint256"
        }
      ],
      "stateMutability": "view",
      "type": "function"
    },
    {
      "inputs": [
        {
          "internalType": "address",
          "name": "account",
          "type": "address"
        },
        {
          "internalType": "address",
          "name": "operator",
          "type": "address"
        }
      ],
      "name": "isApprovedForAll",
      "outputs": [
        {
          "internalType": "bool",
          "name": "",
          "type": "bool"
        }
      ],
      "stateMutability": "view",
      "type": "function"
    },
    {
      "inputs": [
        {
          "internalType": "string",
          "name": "imageURI",
          "type": "string"
        },
        {
          "internalType": "string",
          "name": "animationURI",
          "type": "string"
        },
        {
          "internalType": "string",
          "name": "backgroundColor",
          "type": "string"
        },
        {
          "internalType": "string",
          "name": "name",
          "type": "string"
        },
        {
          "internalType": "string",
          "name": "description",
          "type": "string"
        },
        {
          "internalType": "uint256",
          "name": "amount",
          "type": "uint256"
        }
      ],
      "name": "mint",
      "outputs": [],
      "stateMutability": "nonpayable",
      "type": "function"
    },
    {
      "inputs": [],
      "name": "name",
      "outputs": [
        {
          "internalType": "string",
          "name": "",
          "type": "string"
        }
      ],
      "stateMutability": "view",
      "type": "function"
    },
    {
      "inputs": [],
      "name": "owner",
      "outputs": [
        {
          "internalType": "address",
          "name": "",
          "type": "address"
        }
      ],
      "stateMutability": "view",
      "type": "function"
    },
    {
      "inputs": [],
      "name": "renounceOwnership",
      "outputs": [],
      "stateMutability": "nonpayable",
      "type": "function"
    },
    {
      "inputs": [
        {
          "internalType": "uint256",
          "name": "tokenId",
          "type": "uint256"
        }
      ],
      "name": "resetTokenRoyalty",
      "outputs": [],
      "stateMutability": "nonpayable",
      "type": "function"
    },
    {
      "inputs": [
        {
          "internalType": "uint256",
          "name": "_tokenId",
          "type": "uint256"
        },
        {
          "internalType": "uint256",
          "name": "_salePrice",
          "type": "uint256"
        }
      ],
      "name": "royaltyInfo",
      "outputs": [
        {
          "internalType": "address",
          "name": "",
          "type": "address"
        },
        {
          "internalType": "uint256",
          "name": "",
          "type": "uint256"
        }
      ],
      "stateMutability": "view",
      "type": "function"
    },
    {
      "inputs": [
        {
          "internalType": "address",
          "name": "from",
          "type": "address"
        },
        {
          "internalType": "address[]",
          "name": "toAddresses",
          "type": "address[]"
        },
        {
          "internalType": "uint256[]",
          "name": "ids",
          "type": "uint256[]"
        },
        {
          "internalType": "uint256[]",
          "name": "amounts",
          "type": "uint256[]"
        },
        {
          "internalType": "bytes",
          "name": "data",
          "type": "bytes"
        }
      ],
      "name": "safeBatchDistributeFrom",
      "outputs": [],
      "stateMutability": "nonpayable",
      "type": "function"
    },
    {
      "inputs": [
        {
          "internalType": "address",
          "name": "from",
          "type": "address"
        },
        {
          "internalType": "address",
          "name": "to",
          "type": "address"
        },
        {
          "internalType": "uint256[]",
          "name": "ids",
          "type": "uint256[]"
        },
        {
          "internalType": "uint256[]",
          "name": "amounts",
          "type": "uint256[]"
        },
        {
          "internalType": "bytes",
          "name": "data",
          "type": "bytes"
        }
      ],
      "name": "safeBatchTransferFrom",
      "outputs": [],
      "stateMutability": "nonpayable",
      "type": "function"
    },
    {
      "inputs": [
        {
          "internalType": "address",
          "name": "from",
          "type": "address"
        },
        {
          "internalType": "address",
          "name": "to",
          "type": "address"
        },
        {
          "internalType": "uint256",
          "name": "tokenId",
          "type": "uint256"
        },
        {
          "internalType": "uint256",
          "name": "amount",
          "type": "uint256"
        },
        {
          "internalType": "bytes",
          "name": "data",
          "type": "bytes"
        }
      ],
      "name": "safeTransferFrom",
      "outputs": [],
      "stateMutability": "nonpayable",
      "type": "function"
    },
    {
      "inputs": [
        {
          "internalType": "address",
          "name": "operator",
          "type": "address"
        },
        {
          "internalType": "bool",
          "name": "approved",
          "type": "bool"
        }
      ],
      "name": "setApprovalForAll",
      "outputs": [],
      "stateMutability": "nonpayable",
      "type": "function"
    },
    {
      "inputs": [
        {
          "internalType": "address",
          "name": "receiver",
          "type": "address"
        },
        {
          "internalType": "uint96",
          "name": "feeNumerator",
          "type": "uint96"
        }
      ],
      "name": "setDefaultRoyalty",
      "outputs": [],
      "stateMutability": "nonpayable",
      "type": "function"
    },
    {
      "inputs": [
        {
          "internalType": "uint256",
          "name": "tokenId",
          "type": "uint256"
        },
        {
          "internalType": "address",
          "name": "receiver",
          "type": "address"
        },
        {
          "internalType": "uint96",
          "name": "feeNumerator",
          "type": "uint96"
        }
      ],
      "name": "setTokenRoyalty",
      "outputs": [],
      "stateMutability": "nonpayable",
      "type": "function"
    },
    {
      "inputs": [
        {
          "internalType": "bytes4",
          "name": "interfaceId",
          "type": "bytes4"
        }
      ],
      "name": "supportsInterface",
      "outputs": [
        {
          "internalType": "bool",
          "name": "",
          "type": "bool"
        }
      ],
      "stateMutability": "view",
      "type": "function"
    },
    {
      "inputs": [],
      "name": "symbol",
      "outputs": [
        {
          "internalType": "string",
          "name": "",
          "type": "string"
        }
      ],
      "stateMutability": "view",
      "type": "function"
    },
    {
      "inputs": [
        {
          "internalType": "address",
          "name": "newOwner",
          "type": "address"
        }
      ],
      "name": "transferOwnership",
      "outputs": [],
      "stateMutability": "nonpayable",
      "type": "function"
    },
    {
      "inputs": [
        {
          "internalType": "uint256",
          "name": "tokenId",
          "type": "uint256"
        },
        {
          "internalType": "string",
          "name": "imageURI",
          "type": "string"
        },
        {
          "internalType": "string",
          "name": "animationURI",
          "type": "string"
        },
        {
          "internalType": "string",
          "name": "backgroundColor",
          "type": "string"
        },
        {
          "internalType": "string",
          "name": "name",
          "type": "string"
        },
        {
          "internalType": "string",
          "name": "description",
          "type": "string"
        }
      ],
      "name": "updateTokenURI",
      "outputs": [],
      "stateMutability": "nonpayable",
      "type": "function"
    },
    {
      "inputs": [
        {
          "internalType": "uint256",
          "name": "tokenId",
          "type": "uint256"
        }
      ],
      "name": "uri",
      "outputs": [
        {
          "internalType": "string",
          "name": "",
          "type": "string"
        }
      ],
      "stateMutability": "view",
      "type": "function"
    }
  ],
  "bytecode": "0x60806040523480156200001157600080fd5b50604051620056b9380380620056b98339818101604052810190620000379190620008ed565b733cc6cdda760b79bafa08df41ecfa224f810dceb66001604051806020016040528060008152506200006f816200031360201b60201c565b5062000090620000846200032f60201b60201c565b6200033760201b60201c565b60006daaeb6d7670e522a718067333cd4e73ffffffffffffffffffffffffffffffffffffffff163b1115620002855780156200014b576daaeb6d7670e522a718067333cd4e73ffffffffffffffffffffffffffffffffffffffff16637d3e3dbe30846040518363ffffffff1660e01b815260040162000111929190620009b7565b600060405180830381600087803b1580156200012c57600080fd5b505af115801562000141573d6000803e3d6000fd5b5050505062000284565b600073ffffffffffffffffffffffffffffffffffffffff168273ffffffffffffffffffffffffffffffffffffffff161462000205576daaeb6d7670e522a718067333cd4e73ffffffffffffffffffffffffffffffffffffffff1663a0af290330846040518363ffffffff1660e01b8152600401620001cb929190620009b7565b600060405180830381600087803b158015620001e657600080fd5b505af1158015620001fb573d6000803e3d6000fd5b5050505062000283565b6daaeb6d7670e522a718067333cd4e73ffffffffffffffffffffffffffffffffffffffff16634420e486306040518263ffffffff1660e01b81526004016200024e9190620009e4565b600060405180830381600087803b1580156200026957600080fd5b505af11580156200027e573d6000803e3d6000fd5b505050505b5b5b505081600690805190602001906200029f929190620006a0565b508060079080519060200190620002b8929190620006a0565b50620002dc620002cd620003fd60201b60201c565b6103e86200042760201b60201c565b6200030b6040518060600160405280602381526020016200569660239139620005ca60201b62000e551760201c565b505062000bf0565b80600290805190602001906200032b929190620006a0565b5050565b600033905090565b6000600360009054906101000a900473ffffffffffffffffffffffffffffffffffffffff16905081600360006101000a81548173ffffffffffffffffffffffffffffffffffffffff021916908373ffffffffffffffffffffffffffffffffffffffff1602179055508173ffffffffffffffffffffffffffffffffffffffff168173ffffffffffffffffffffffffffffffffffffffff167f8be0079c531659141344cd1fd0a4f28419497f9722a3daafe3b4186f6b6457e060405160405180910390a35050565b6000600360009054906101000a900473ffffffffffffffffffffffffffffffffffffffff16905090565b620004376200066d60201b60201c565b6bffffffffffffffffffffffff16816bffffffffffffffffffffffff16111562000498576040517f08c379a00000000000000000000000000000000000000000000000000000000081526004016200048f9062000a88565b60405180910390fd5b600073ffffffffffffffffffffffffffffffffffffffff168273ffffffffffffffffffffffffffffffffffffffff16036200050a576040517f08c379a0000000000000000000000000000000000000000000000000000000008152600401620005019062000afa565b60405180910390fd5b60405180604001604052808373ffffffffffffffffffffffffffffffffffffffff168152602001826bffffffffffffffffffffffff16815250600460008201518160000160006101000a81548173ffffffffffffffffffffffffffffffffffffffff021916908373ffffffffffffffffffffffffffffffffffffffff16021790555060208201518160000160146101000a8154816bffffffffffffffffffffffff02191690836bffffffffffffffffffffffff1602179055509050505050565b6200066a81604051602401620005e1919062000b68565b6040516020818303038152906040527f41304fac000000000000000000000000000000000000000000000000000000007bffffffffffffffffffffffffffffffffffffffffffffffffffffffff19166020820180517bffffffffffffffffffffffffffffffffffffffffffffffffffffffff83818316178352505050506200067760201b60201c565b50565b6000612710905090565b60008151905060006a636f6e736f6c652e6c6f679050602083016000808483855afa5050505050565b828054620006ae9062000bbb565b90600052602060002090601f016020900481019282620006d257600085556200071e565b82601f10620006ed57805160ff19168380011785556200071e565b828001600101855582156200071e579182015b828111156200071d57825182559160200191906001019062000700565b5b5090506200072d919062000731565b5090565b5b808211156200074c57600081600090555060010162000732565b5090565b6000604051905090565b600080fd5b600080fd5b600080fd5b600080fd5b6000601f19601f8301169050919050565b7f4e487b7100000000000000000000000000000000000000000000000000000000600052604160045260246000fd5b620007b9826200076e565b810181811067ffffffffffffffff82111715620007db57620007da6200077f565b5b80604052505050565b6000620007f062000750565b9050620007fe8282620007ae565b919050565b600067ffffffffffffffff8211156200082157620008206200077f565b5b6200082c826200076e565b9050602081019050919050565b60005b83811015620008595780820151818401526020810190506200083c565b8381111562000869576000848401525b50505050565b600062000886620008808462000803565b620007e4565b905082815260208101848484011115620008a557620008a462000769565b5b620008b284828562000839565b509392505050565b600082601f830112620008d257620008d162000764565b5b8151620008e48482602086016200086f565b91505092915050565b600080604083850312156200090757620009066200075a565b5b600083015167ffffffffffffffff8111156200092857620009276200075f565b5b6200093685828601620008ba565b925050602083015167ffffffffffffffff8111156200095a57620009596200075f565b5b6200096885828601620008ba565b9150509250929050565b600073ffffffffffffffffffffffffffffffffffffffff82169050919050565b60006200099f8262000972565b9050919050565b620009b18162000992565b82525050565b6000604082019050620009ce6000830185620009a6565b620009dd6020830184620009a6565b9392505050565b6000602082019050620009fb6000830184620009a6565b92915050565b600082825260208201905092915050565b7f455243323938313a20726f79616c7479206665652077696c6c2065786365656460008201527f2073616c65507269636500000000000000000000000000000000000000000000602082015250565b600062000a70602a8362000a01565b915062000a7d8262000a12565b604082019050919050565b6000602082019050818103600083015262000aa38162000a61565b9050919050565b7f455243323938313a20696e76616c696420726563656976657200000000000000600082015250565b600062000ae260198362000a01565b915062000aef8262000aaa565b602082019050919050565b6000602082019050818103600083015262000b158162000ad3565b9050919050565b600081519050919050565b600062000b348262000b1c565b62000b40818562000a01565b935062000b5281856020860162000839565b62000b5d816200076e565b840191505092915050565b6000602082019050818103600083015262000b84818462000b27565b905092915050565b7f4e487b7100000000000000000000000000000000000000000000000000000000600052602260045260246000fd5b6000600282049050600182168062000bd457607f821691505b60208210810362000bea5762000be962000b8c565b5b50919050565b614a968062000c006000396000f3fe608060405234801561001057600080fd5b506004361061014c5760003560e01c806368e306c6116100c3578063a22cb4651161007c578063a22cb4651461038a578063aa1b103f146103a6578063e5888368146103b0578063e985e9c5146103cc578063f242432a146103fc578063f2fde38b146104185761014c565b806368e306c6146102ee578063715018a61461030a5780638a616bc0146103145780638ada066e146103305780638da5cb5b1461034e57806395d89b411461036c5761014c565b80632a55205a116101155780632a55205a1461021b5780632eb2c2d61461024c57806341f43434146102685780634e1273f4146102865780635944c753146102b657806363b91615146102d25761014c565b8062fdd58e1461015157806301ffc9a71461018157806304634d8d146101b157806306fdde03146101cd5780630e89341c146101eb575b600080fd5b61016b600480360381019061016691906129d6565b610434565b6040516101789190612a25565b60405180910390f35b61019b60048036038101906101969190612a98565b6104fc565b6040516101a89190612ae0565b60405180910390f35b6101cb60048036038101906101c69190612b3f565b61050e565b005b6101d5610524565b6040516101e29190612c18565b60405180910390f35b61020560048036038101906102009190612c3a565b6105b2565b6040516102129190612c18565b60405180910390f35b61023560048036038101906102309190612c67565b610657565b604051610243929190612cb6565b60405180910390f35b61026660048036038101906102619190612edc565b610841565b005b610270610894565b60405161027d919061300a565b60405180910390f35b6102a0600480360381019061029b91906130e8565b6108a6565b6040516102ad919061321e565b60405180910390f35b6102d060048036038101906102cb9190613240565b6109bf565b005b6102ec60048036038101906102e79190613293565b6109d7565b005b6103086004803603810190610303919061341f565b610a62565b005b610312610b19565b005b61032e60048036038101906103299190612c3a565b610b2d565b005b610338610b41565b6040516103459190612a25565b60405180910390f35b610356610b52565b6040516103639190613538565b60405180910390f35b610374610b7c565b6040516103819190612c18565b60405180910390f35b6103a4600480360381019061039f919061357f565b610c0a565b005b6103ae610c23565b005b6103ca60048036038101906103c591906135bf565b610c35565b005b6103e660048036038101906103e191906136d8565b610ceb565b6040516103f39190612ae0565b60405180910390f35b61041660048036038101906104119190613718565b610d7f565b005b610432600480360381019061042d91906137af565b610dd2565b005b60008073ffffffffffffffffffffffffffffffffffffffff168373ffffffffffffffffffffffffffffffffffffffff16036104a4576040517f08c379a000000000000000000000000000000000000000000000000000000000815260040161049b9061384e565b60405180910390fd5b60008083815260200190815260200160002060008473ffffffffffffffffffffffffffffffffffffffff1673ffffffffffffffffffffffffffffffffffffffff16815260200190815260200160002054905092915050565b600061050782610eee565b9050919050565b610516610f68565b6105208282610fe6565b5050565b600680546105319061389d565b80601f016020809104026020016040519081016040528092919081815260200182805461055d9061389d565b80156105aa5780601f1061057f576101008083540402835291602001916105aa565b820191906000526020600020905b81548152906001019060200180831161058d57829003601f168201915b505050505081565b60606009600083815260200190815260200160002080546105d29061389d565b80601f01602080910402602001604051908101604052809291908181526020018280546105fe9061389d565b801561064b5780601f106106205761010080835404028352916020019161064b565b820191906000526020600020905b81548152906001019060200180831161062e57829003601f168201915b50505050509050919050565b6000806000600560008681526020019081526020016000206040518060400160405290816000820160009054906101000a900473ffffffffffffffffffffffffffffffffffffffff1673ffffffffffffffffffffffffffffffffffffffff1673ffffffffffffffffffffffffffffffffffffffff1681526020016000820160149054906101000a90046bffffffffffffffffffffffff166bffffffffffffffffffffffff166bffffffffffffffffffffffff16815250509050600073ffffffffffffffffffffffffffffffffffffffff16816000015173ffffffffffffffffffffffffffffffffffffffff16036107ec5760046040518060400160405290816000820160009054906101000a900473ffffffffffffffffffffffffffffffffffffffff1673ffffffffffffffffffffffffffffffffffffffff1673ffffffffffffffffffffffffffffffffffffffff1681526020016000820160149054906101000a90046bffffffffffffffffffffffff166bffffffffffffffffffffffff166bffffffffffffffffffffffff168152505090505b60006107f661117b565b6bffffffffffffffffffffffff1682602001516bffffffffffffffffffffffff168661082291906138fd565b61082c9190613986565b90508160000151819350935050509250929050565b843373ffffffffffffffffffffffffffffffffffffffff168173ffffffffffffffffffffffffffffffffffffffff161461087f5761087e33611185565b5b61088c8686868686611282565b505050505050565b6daaeb6d7670e522a718067333cd4e81565b606081518351146108ec576040517f08c379a00000000000000000000000000000000000000000000000000000000081526004016108e390613a29565b60405180910390fd5b6000835167ffffffffffffffff81111561090957610908612ce4565b5b6040519080825280602002602001820160405280156109375781602001602082028036833780820191505090505b50905060005b84518110156109b45761098485828151811061095c5761095b613a49565b5b602002602001015185838151811061097757610976613a49565b5b6020026020010151610434565b82828151811061099757610996613a49565b5b602002602001018181525050806109ad90613a78565b905061093d565b508091505092915050565b6109c7610f68565b6109d2838383611323565b505050565b60005b8451811015610a1b57610a0a868683815181106109fa576109f9613a49565b5b6020026020010151868686610841565b80610a1490613a78565b90506109da565b507fe9cc37c72517b260e8c6b7449767f519b86f22ec989025e956f2e7a57e41d6db3385858585604051610a53959493929190613bd3565b60405180910390a15050505050565b610a6a610f68565b6001610a7660086114ca565b610a809190613c42565b861115610ac2576040517f08c379a0000000000000000000000000000000000000000000000000000000008152600401610ab990613cc2565b60405180910390fd5b610ad886610ad387878787876114d8565b61153a565b7ffcc700301bdb585fff781de6f961d84cda2143e06bdac09b371dcd3f6c661ca23387604051610b09929190612cb6565b60405180910390a1505050505050565b610b21610f68565b610b2b6000611566565b565b610b35610f68565b610b3e8161162c565b50565b6000610b4d60086114ca565b905090565b6000600360009054906101000a900473ffffffffffffffffffffffffffffffffffffffff16905090565b60078054610b899061389d565b80601f0160208091040260200160405190810160405280929190818152602001828054610bb59061389d565b8015610c025780601f10610bd757610100808354040283529160200191610c02565b820191906000526020600020905b815481529060010190602001808311610be557829003601f168201915b505050505081565b81610c1481611185565b610c1e838361168b565b505050565b610c2b610f68565b610c336116a1565b565b610c3d610f68565b6000610c4960086114ca565b9050610c66338284604051806020016040528060008152506116ee565b610c7c81610c7789898989896114d8565b61153a565b610c9f6040518060600160405280602581526020016149fc60259139823361189e565b610ca9600861193d565b7f0f6798a560793a54c3bcfe86a93cde1e73087d944c0ea20544137d41213968853382604051610cda929190612cb6565b60405180910390a150505050505050565b6000600160008473ffffffffffffffffffffffffffffffffffffffff1673ffffffffffffffffffffffffffffffffffffffff16815260200190815260200160002060008373ffffffffffffffffffffffffffffffffffffffff1673ffffffffffffffffffffffffffffffffffffffff16815260200190815260200160002060009054906101000a900460ff16905092915050565b843373ffffffffffffffffffffffffffffffffffffffff168173ffffffffffffffffffffffffffffffffffffffff1614610dbd57610dbc33611185565b5b610dca8686868686611953565b505050505050565b610dda610f68565b600073ffffffffffffffffffffffffffffffffffffffff168173ffffffffffffffffffffffffffffffffffffffff1603610e49576040517f08c379a0000000000000000000000000000000000000000000000000000000008152600401610e4090613d54565b60405180910390fd5b610e5281611566565b50565b610eeb81604051602401610e699190612c18565b6040516020818303038152906040527f41304fac000000000000000000000000000000000000000000000000000000007bffffffffffffffffffffffffffffffffffffffffffffffffffffffff19166020820180517bffffffffffffffffffffffffffffffffffffffffffffffffffffffff83818316178352505050506119f4565b50565b60007f2a55205a000000000000000000000000000000000000000000000000000000007bffffffffffffffffffffffffffffffffffffffffffffffffffffffff1916827bffffffffffffffffffffffffffffffffffffffffffffffffffffffff19161480610f615750610f6082611a1d565b5b9050919050565b610f70611aff565b73ffffffffffffffffffffffffffffffffffffffff16610f8e610b52565b73ffffffffffffffffffffffffffffffffffffffff1614610fe4576040517f08c379a0000000000000000000000000000000000000000000000000000000008152600401610fdb90613dc0565b60405180910390fd5b565b610fee61117b565b6bffffffffffffffffffffffff16816bffffffffffffffffffffffff16111561104c576040517f08c379a000000000000000000000000000000000000000000000000000000000815260040161104390613e52565b60405180910390fd5b600073ffffffffffffffffffffffffffffffffffffffff168273ffffffffffffffffffffffffffffffffffffffff16036110bb576040517f08c379a00000000000000000000000000000000000000000000000000000000081526004016110b290613ebe565b60405180910390fd5b60405180604001604052808373ffffffffffffffffffffffffffffffffffffffff168152602001826bffffffffffffffffffffffff16815250600460008201518160000160006101000a81548173ffffffffffffffffffffffffffffffffffffffff021916908373ffffffffffffffffffffffffffffffffffffffff16021790555060208201518160000160146101000a8154816bffffffffffffffffffffffff02191690836bffffffffffffffffffffffff1602179055509050505050565b6000612710905090565b60006daaeb6d7670e522a718067333cd4e73ffffffffffffffffffffffffffffffffffffffff163b111561127f576daaeb6d7670e522a718067333cd4e73ffffffffffffffffffffffffffffffffffffffff1663c617113430836040518363ffffffff1660e01b81526004016111fc929190613ede565b602060405180830381865afa158015611219573d6000803e3d6000fd5b505050506040513d601f19601f8201168201806040525081019061123d9190613f1c565b61127e57806040517fede71dcc0000000000000000000000000000000000000000000000000000000081526004016112759190613538565b60405180910390fd5b5b50565b61128a611aff565b73ffffffffffffffffffffffffffffffffffffffff168573ffffffffffffffffffffffffffffffffffffffff1614806112d057506112cf856112ca611aff565b610ceb565b5b61130f576040517f08c379a000000000000000000000000000000000000000000000000000000000815260040161130690613fbb565b60405180910390fd5b61131c8585858585611b07565b5050505050565b61132b61117b565b6bffffffffffffffffffffffff16816bffffffffffffffffffffffff161115611389576040517f08c379a000000000000000000000000000000000000000000000000000000000815260040161138090613e52565b60405180910390fd5b600073ffffffffffffffffffffffffffffffffffffffff168273ffffffffffffffffffffffffffffffffffffffff16036113f8576040517f08c379a00000000000000000000000000000000000000000000000000000000081526004016113ef90614027565b60405180910390fd5b60405180604001604052808373ffffffffffffffffffffffffffffffffffffffff168152602001826bffffffffffffffffffffffff168152506005600085815260200190815260200160002060008201518160000160006101000a81548173ffffffffffffffffffffffffffffffffffffffff021916908373ffffffffffffffffffffffffffffffffffffffff16021790555060208201518160000160146101000a8154816bffffffffffffffffffffffff02191690836bffffffffffffffffffffffff160217905550905050505050565b600081600001549050919050565b6060600061150c84848989896040516020016114f895949392919061424b565b604051602081830303815290604052611e28565b90508060405160200161151f9190614324565b60405160208183030381529060405291505095945050505050565b8060096000848152602001908152602001600020908051906020019061156192919061288b565b505050565b6000600360009054906101000a900473ffffffffffffffffffffffffffffffffffffffff16905081600360006101000a81548173ffffffffffffffffffffffffffffffffffffffff021916908373ffffffffffffffffffffffffffffffffffffffff1602179055508173ffffffffffffffffffffffffffffffffffffffff168173ffffffffffffffffffffffffffffffffffffffff167f8be0079c531659141344cd1fd0a4f28419497f9722a3daafe3b4186f6b6457e060405160405180910390a35050565b60056000828152602001908152602001600020600080820160006101000a81549073ffffffffffffffffffffffffffffffffffffffff02191690556000820160146101000a8154906bffffffffffffffffffffffff0219169055505050565b61169d611696611aff565b8383611fbf565b5050565b6004600080820160006101000a81549073ffffffffffffffffffffffffffffffffffffffff02191690556000820160146101000a8154906bffffffffffffffffffffffff02191690555050565b600073ffffffffffffffffffffffffffffffffffffffff168473ffffffffffffffffffffffffffffffffffffffff160361175d576040517f08c379a0000000000000000000000000000000000000000000000000000000008152600401611754906143b8565b60405180910390fd5b6000611767611aff565b905060006117748561212b565b905060006117818561212b565b9050611792836000898585896121a5565b8460008088815260200190815260200160002060008973ffffffffffffffffffffffffffffffffffffffff1673ffffffffffffffffffffffffffffffffffffffff16815260200190815260200160002060008282546117f191906143d8565b925050819055508673ffffffffffffffffffffffffffffffffffffffff16600073ffffffffffffffffffffffffffffffffffffffff168473ffffffffffffffffffffffffffffffffffffffff167fc3d58168c5ae7397731d063d5bbf3d657854427343f4c083240f7aacaa2d0f62898960405161186f92919061442e565b60405180910390a4611886836000898585896121ad565b611895836000898989896121b5565b50505050505050565b6119388383836040516024016118b693929190614457565b6040516020818303038152906040527f1c7ec448000000000000000000000000000000000000000000000000000000007bffffffffffffffffffffffffffffffffffffffffffffffffffffffff19166020820180517bffffffffffffffffffffffffffffffffffffffffffffffffffffffff83818316178352505050506119f4565b505050565b6001816000016000828254019250508190555050565b61195b611aff565b73ffffffffffffffffffffffffffffffffffffffff168573ffffffffffffffffffffffffffffffffffffffff1614806119a157506119a08561199b611aff565b610ceb565b5b6119e0576040517f08c379a00000000000000000000000000000000000000000000000000000000081526004016119d790613fbb565b60405180910390fd5b6119ed858585858561238c565b5050505050565b60008151905060006a636f6e736f6c652e6c6f679050602083016000808483855afa5050505050565b60007fd9b67a26000000000000000000000000000000000000000000000000000000007bffffffffffffffffffffffffffffffffffffffffffffffffffffffff1916827bffffffffffffffffffffffffffffffffffffffffffffffffffffffff19161480611ae857507f0e89341c000000000000000000000000000000000000000000000000000000007bffffffffffffffffffffffffffffffffffffffffffffffffffffffff1916827bffffffffffffffffffffffffffffffffffffffffffffffffffffffff1916145b80611af85750611af782612627565b5b9050919050565b600033905090565b8151835114611b4b576040517f08c379a0000000000000000000000000000000000000000000000000000000008152600401611b4290614507565b60405180910390fd5b600073ffffffffffffffffffffffffffffffffffffffff168473ffffffffffffffffffffffffffffffffffffffff1603611bba576040517f08c379a0000000000000000000000000000000000000000000000000000000008152600401611bb190614599565b60405180910390fd5b6000611bc4611aff565b9050611bd48187878787876121a5565b60005b8451811015611d85576000858281518110611bf557611bf4613a49565b5b602002602001015190506000858381518110611c1457611c13613a49565b5b60200260200101519050600080600084815260200190815260200160002060008b73ffffffffffffffffffffffffffffffffffffffff1673ffffffffffffffffffffffffffffffffffffffff16815260200190815260200160002054905081811015611cb5576040517f08c379a0000000000000000000000000000000000000000000000000000000008152600401611cac9061462b565b60405180910390fd5b81810360008085815260200190815260200160002060008c73ffffffffffffffffffffffffffffffffffffffff1673ffffffffffffffffffffffffffffffffffffffff168152602001908152602001600020819055508160008085815260200190815260200160002060008b73ffffffffffffffffffffffffffffffffffffffff1673ffffffffffffffffffffffffffffffffffffffff1681526020019081526020016000206000828254611d6a91906143d8565b9250508190555050505080611d7e90613a78565b9050611bd7565b508473ffffffffffffffffffffffffffffffffffffffff168673ffffffffffffffffffffffffffffffffffffffff168273ffffffffffffffffffffffffffffffffffffffff167f4a39dc06d4c0dbc64b70af90fd698a233a518aa5d07e595d983b8c0526c8f7fb8787604051611dfc92919061464b565b60405180910390a4611e128187878787876121ad565b611e20818787878787612691565b505050505050565b606060008251905060008103611e505760405180602001604052806000815250915050611fba565b60006003600283611e6191906143d8565b611e6b9190613986565b6004611e7791906138fd565b90506000602082611e8891906143d8565b67ffffffffffffffff811115611ea157611ea0612ce4565b5b6040519080825280601f01601f191660200182016040528015611ed35781602001600182028036833780820191505090505b5090506000604051806060016040528060408152602001614a21604091399050600181016020830160005b86811015611f775760038101905062ffffff818a015116603f8160121c168401518060081b905060ff603f83600c1c1686015116810190508060081b905060ff603f8360061c1686015116810190508060081b905060ff603f831686015116810190508060e01b90508084526004840193505050611efe565b506003860660018114611f915760028114611fa157611fac565b613d3d60f01b6002830352611fac565b603d60f81b60018303525b508484525050819450505050505b919050565b8173ffffffffffffffffffffffffffffffffffffffff168373ffffffffffffffffffffffffffffffffffffffff160361202d576040517f08c379a0000000000000000000000000000000000000000000000000000000008152600401612024906146f4565b60405180910390fd5b80600160008573ffffffffffffffffffffffffffffffffffffffff1673ffffffffffffffffffffffffffffffffffffffff16815260200190815260200160002060008473ffffffffffffffffffffffffffffffffffffffff1673ffffffffffffffffffffffffffffffffffffffff16815260200190815260200160002060006101000a81548160ff0219169083151502179055508173ffffffffffffffffffffffffffffffffffffffff168373ffffffffffffffffffffffffffffffffffffffff167f17307eab39ab6107e8899845ad3d59bd9653f200f220920489ca2b5937696c318360405161211e9190612ae0565b60405180910390a3505050565b60606000600167ffffffffffffffff81111561214a57612149612ce4565b5b6040519080825280602002602001820160405280156121785781602001602082028036833780820191505090505b50905082816000815181106121905761218f613a49565b5b60200260200101818152505080915050919050565b505050505050565b505050505050565b6121d48473ffffffffffffffffffffffffffffffffffffffff16612868565b15612384578373ffffffffffffffffffffffffffffffffffffffff1663f23a6e6187878686866040518663ffffffff1660e01b815260040161221a959493929190614714565b6020604051808303816000875af192505050801561225657506040513d601f19601f820116820180604052508101906122539190614783565b60015b6122fb576122626147bd565b806308c379a0036122be57506122766147df565b8061228157506122c0565b806040517f08c379a00000000000000000000000000000000000000000000000000000000081526004016122b59190612c18565b60405180910390fd5b505b6040517f08c379a00000000000000000000000000000000000000000000000000000000081526004016122f2906148e1565b60405180910390fd5b63f23a6e6160e01b7bffffffffffffffffffffffffffffffffffffffffffffffffffffffff1916817bffffffffffffffffffffffffffffffffffffffffffffffffffffffff191614612382576040517f08c379a000000000000000000000000000000000000000000000000000000000815260040161237990614973565b60405180910390fd5b505b505050505050565b600073ffffffffffffffffffffffffffffffffffffffff168473ffffffffffffffffffffffffffffffffffffffff16036123fb576040517f08c379a00000000000000000000000000000000000000000000000000000000081526004016123f290614599565b60405180910390fd5b6000612405611aff565b905060006124128561212b565b9050600061241f8561212b565b905061242f8389898585896121a5565b600080600088815260200190815260200160002060008a73ffffffffffffffffffffffffffffffffffffffff1673ffffffffffffffffffffffffffffffffffffffff168152602001908152602001600020549050858110156124c6576040517f08c379a00000000000000000000000000000000000000000000000000000000081526004016124bd9061462b565b60405180910390fd5b85810360008089815260200190815260200160002060008b73ffffffffffffffffffffffffffffffffffffffff1673ffffffffffffffffffffffffffffffffffffffff168152602001908152602001600020819055508560008089815260200190815260200160002060008a73ffffffffffffffffffffffffffffffffffffffff1673ffffffffffffffffffffffffffffffffffffffff168152602001908152602001600020600082825461257b91906143d8565b925050819055508773ffffffffffffffffffffffffffffffffffffffff168973ffffffffffffffffffffffffffffffffffffffff168573ffffffffffffffffffffffffffffffffffffffff167fc3d58168c5ae7397731d063d5bbf3d657854427343f4c083240f7aacaa2d0f628a8a6040516125f892919061442e565b60405180910390a461260e848a8a86868a6121ad565b61261c848a8a8a8a8a6121b5565b505050505050505050565b60007f01ffc9a7000000000000000000000000000000000000000000000000000000007bffffffffffffffffffffffffffffffffffffffffffffffffffffffff1916827bffffffffffffffffffffffffffffffffffffffffffffffffffffffff1916149050919050565b6126b08473ffffffffffffffffffffffffffffffffffffffff16612868565b15612860578373ffffffffffffffffffffffffffffffffffffffff1663bc197c8187878686866040518663ffffffff1660e01b81526004016126f6959493929190614993565b6020604051808303816000875af192505050801561273257506040513d601f19601f8201168201806040525081019061272f9190614783565b60015b6127d75761273e6147bd565b806308c379a00361279a57506127526147df565b8061275d575061279c565b806040517f08c379a00000000000000000000000000000000000000000000000000000000081526004016127919190612c18565b60405180910390fd5b505b6040517f08c379a00000000000000000000000000000000000000000000000000000000081526004016127ce906148e1565b60405180910390fd5b63bc197c8160e01b7bffffffffffffffffffffffffffffffffffffffffffffffffffffffff1916817bffffffffffffffffffffffffffffffffffffffffffffffffffffffff19161461285e576040517f08c379a000000000000000000000000000000000000000000000000000000000815260040161285590614973565b60405180910390fd5b505b505050505050565b6000808273ffffffffffffffffffffffffffffffffffffffff163b119050919050565b8280546128979061389d565b90600052602060002090601f0160209004810192826128b95760008555612900565b82601f106128d257805160ff1916838001178555612900565b82800160010185558215612900579182015b828111156128ff5782518255916020019190600101906128e4565b5b50905061290d9190612911565b5090565b5b8082111561292a576000816000905550600101612912565b5090565b6000604051905090565b600080fd5b600080fd5b600073ffffffffffffffffffffffffffffffffffffffff82169050919050565b600061296d82612942565b9050919050565b61297d81612962565b811461298857600080fd5b50565b60008135905061299a81612974565b92915050565b6000819050919050565b6129b3816129a0565b81146129be57600080fd5b50565b6000813590506129d0816129aa565b92915050565b600080604083850312156129ed576129ec612938565b5b60006129fb8582860161298b565b9250506020612a0c858286016129c1565b9150509250929050565b612a1f816129a0565b82525050565b6000602082019050612a3a6000830184612a16565b92915050565b60007fffffffff0000000000000000000000000000000000000000000000000000000082169050919050565b612a7581612a40565b8114612a8057600080fd5b50565b600081359050612a9281612a6c565b92915050565b600060208284031215612aae57612aad612938565b5b6000612abc84828501612a83565b91505092915050565b60008115159050919050565b612ada81612ac5565b82525050565b6000602082019050612af56000830184612ad1565b92915050565b60006bffffffffffffffffffffffff82169050919050565b612b1c81612afb565b8114612b2757600080fd5b50565b600081359050612b3981612b13565b92915050565b60008060408385031215612b5657612b55612938565b5b6000612b648582860161298b565b9250506020612b7585828601612b2a565b9150509250929050565b600081519050919050565b600082825260208201905092915050565b60005b83811015612bb9578082015181840152602081019050612b9e565b83811115612bc8576000848401525b50505050565b6000601f19601f8301169050919050565b6000612bea82612b7f565b612bf48185612b8a565b9350612c04818560208601612b9b565b612c0d81612bce565b840191505092915050565b60006020820190508181036000830152612c328184612bdf565b905092915050565b600060208284031215612c5057612c4f612938565b5b6000612c5e848285016129c1565b91505092915050565b60008060408385031215612c7e57612c7d612938565b5b6000612c8c858286016129c1565b9250506020612c9d858286016129c1565b9150509250929050565b612cb081612962565b82525050565b6000604082019050612ccb6000830185612ca7565b612cd86020830184612a16565b9392505050565b600080fd5b7f4e487b7100000000000000000000000000000000000000000000000000000000600052604160045260246000fd5b612d1c82612bce565b810181811067ffffffffffffffff82111715612d3b57612d3a612ce4565b5b80604052505050565b6000612d4e61292e565b9050612d5a8282612d13565b919050565b600067ffffffffffffffff821115612d7a57612d79612ce4565b5b602082029050602081019050919050565b600080fd5b6000612da3612d9e84612d5f565b612d44565b90508083825260208201905060208402830185811115612dc657612dc5612d8b565b5b835b81811015612def5780612ddb88826129c1565b845260208401935050602081019050612dc8565b5050509392505050565b600082601f830112612e0e57612e0d612cdf565b5b8135612e1e848260208601612d90565b91505092915050565b600080fd5b600067ffffffffffffffff821115612e4757612e46612ce4565b5b612e5082612bce565b9050602081019050919050565b82818337600083830152505050565b6000612e7f612e7a84612e2c565b612d44565b905082815260208101848484011115612e9b57612e9a612e27565b5b612ea6848285612e5d565b509392505050565b600082601f830112612ec357612ec2612cdf565b5b8135612ed3848260208601612e6c565b91505092915050565b600080600080600060a08688031215612ef857612ef7612938565b5b6000612f068882890161298b565b9550506020612f178882890161298b565b945050604086013567ffffffffffffffff811115612f3857612f3761293d565b5b612f4488828901612df9565b935050606086013567ffffffffffffffff811115612f6557612f6461293d565b5b612f7188828901612df9565b925050608086013567ffffffffffffffff811115612f9257612f9161293d565b5b612f9e88828901612eae565b9150509295509295909350565b6000819050919050565b6000612fd0612fcb612fc684612942565b612fab565b612942565b9050919050565b6000612fe282612fb5565b9050919050565b6000612ff482612fd7565b9050919050565b61300481612fe9565b82525050565b600060208201905061301f6000830184612ffb565b92915050565b600067ffffffffffffffff8211156130405761303f612ce4565b5b602082029050602081019050919050565b600061306461305f84613025565b612d44565b9050808382526020820190506020840283018581111561308757613086612d8b565b5b835b818110156130b0578061309c888261298b565b845260208401935050602081019050613089565b5050509392505050565b600082601f8301126130cf576130ce612cdf565b5b81356130df848260208601613051565b91505092915050565b600080604083850312156130ff576130fe612938565b5b600083013567ffffffffffffffff81111561311d5761311c61293d565b5b613129858286016130ba565b925050602083013567ffffffffffffffff81111561314a5761314961293d565b5b61315685828601612df9565b9150509250929050565b600081519050919050565b600082825260208201905092915050565b6000819050602082019050919050565b613195816129a0565b82525050565b60006131a7838361318c565b60208301905092915050565b6000602082019050919050565b60006131cb82613160565b6131d5818561316b565b93506131e08361317c565b8060005b838110156132115781516131f8888261319b565b9750613203836131b3565b9250506001810190506131e4565b5085935050505092915050565b6000602082019050818103600083015261323881846131c0565b905092915050565b60008060006060848603121561325957613258612938565b5b6000613267868287016129c1565b93505060206132788682870161298b565b925050604061328986828701612b2a565b9150509250925092565b600080600080600060a086880312156132af576132ae612938565b5b60006132bd8882890161298b565b955050602086013567ffffffffffffffff8111156132de576132dd61293d565b5b6132ea888289016130ba565b945050604086013567ffffffffffffffff81111561330b5761330a61293d565b5b61331788828901612df9565b935050606086013567ffffffffffffffff8111156133385761333761293d565b5b61334488828901612df9565b925050608086013567ffffffffffffffff8111156133655761336461293d565b5b61337188828901612eae565b9150509295509295909350565b600067ffffffffffffffff82111561339957613398612ce4565b5b6133a282612bce565b9050602081019050919050565b60006133c26133bd8461337e565b612d44565b9050828152602081018484840111156133de576133dd612e27565b5b6133e9848285612e5d565b509392505050565b600082601f83011261340657613405612cdf565b5b81356134168482602086016133af565b91505092915050565b60008060008060008060c0878903121561343c5761343b612938565b5b600061344a89828a016129c1565b965050602087013567ffffffffffffffff81111561346b5761346a61293d565b5b61347789828a016133f1565b955050604087013567ffffffffffffffff8111156134985761349761293d565b5b6134a489828a016133f1565b945050606087013567ffffffffffffffff8111156134c5576134c461293d565b5b6134d189828a016133f1565b935050608087013567ffffffffffffffff8111156134f2576134f161293d565b5b6134fe89828a016133f1565b92505060a087013567ffffffffffffffff81111561351f5761351e61293d565b5b61352b89828a016133f1565b9150509295509295509295565b600060208201905061354d6000830184612ca7565b92915050565b61355c81612ac5565b811461356757600080fd5b50565b60008135905061357981613553565b92915050565b6000806040838503121561359657613595612938565b5b60006135a48582860161298b565b92505060206135b58582860161356a565b9150509250929050565b60008060008060008060c087890312156135dc576135db612938565b5b600087013567ffffffffffffffff8111156135fa576135f961293d565b5b61360689828a016133f1565b965050602087013567ffffffffffffffff8111156136275761362661293d565b5b61363389828a016133f1565b955050604087013567ffffffffffffffff8111156136545761365361293d565b5b61366089828a016133f1565b945050606087013567ffffffffffffffff8111156136815761368061293d565b5b61368d89828a016133f1565b935050608087013567ffffffffffffffff8111156136ae576136ad61293d565b5b6136ba89828a016133f1565b92505060a06136cb89828a016129c1565b9150509295509295509295565b600080604083850312156136ef576136ee612938565b5b60006136fd8582860161298b565b925050602061370e8582860161298b565b9150509250929050565b600080600080600060a0868803121561373457613733612938565b5b60006137428882890161298b565b95505060206137538882890161298b565b9450506040613764888289016129c1565b9350506060613775888289016129c1565b925050608086013567ffffffffffffffff8111156137965761379561293d565b5b6137a288828901612eae565b9150509295509295909350565b6000602082840312156137c5576137c4612938565b5b60006137d38482850161298b565b91505092915050565b7f455243313135353a2061646472657373207a65726f206973206e6f742061207660008201527f616c6964206f776e657200000000000000000000000000000000000000000000602082015250565b6000613838602a83612b8a565b9150613843826137dc565b604082019050919050565b600060208201905081810360008301526138678161382b565b9050919050565b7f4e487b7100000000000000000000000000000000000000000000000000000000600052602260045260246000fd5b600060028204905060018216806138b557607f821691505b6020821081036138c8576138c761386e565b5b50919050565b7f4e487b7100000000000000000000000000000000000000000000000000000000600052601160045260246000fd5b6000613908826129a0565b9150613913836129a0565b9250817fffffffffffffffffffffffffffffffffffffffffffffffffffffffffffffffff048311821515161561394c5761394b6138ce565b5b828202905092915050565b7f4e487b7100000000000000000000000000000000000000000000000000000000600052601260045260246000fd5b6000613991826129a0565b915061399c836129a0565b9250826139ac576139ab613957565b5b828204905092915050565b7f455243313135353a206163636f756e747320616e6420696473206c656e67746860008201527f206d69736d617463680000000000000000000000000000000000000000000000602082015250565b6000613a13602983612b8a565b9150613a1e826139b7565b604082019050919050565b60006020820190508181036000830152613a4281613a06565b9050919050565b7f4e487b7100000000000000000000000000000000000000000000000000000000600052603260045260246000fd5b6000613a83826129a0565b91507fffffffffffffffffffffffffffffffffffffffffffffffffffffffffffffffff8203613ab557613ab46138ce565b5b600182019050919050565b600081519050919050565b600082825260208201905092915050565b6000819050602082019050919050565b613af581612962565b82525050565b6000613b078383613aec565b60208301905092915050565b6000602082019050919050565b6000613b2b82613ac0565b613b358185613acb565b9350613b4083613adc565b8060005b83811015613b71578151613b588882613afb565b9750613b6383613b13565b925050600181019050613b44565b5085935050505092915050565b600081519050919050565b600082825260208201905092915050565b6000613ba582613b7e565b613baf8185613b89565b9350613bbf818560208601612b9b565b613bc881612bce565b840191505092915050565b600060a082019050613be86000830188612ca7565b8181036020830152613bfa8187613b20565b90508181036040830152613c0e81866131c0565b90508181036060830152613c2281856131c0565b90508181036080830152613c368184613b9a565b90509695505050505050565b6000613c4d826129a0565b9150613c58836129a0565b925082821015613c6b57613c6a6138ce565b5b828203905092915050565b7f4f766572206578697374696e6720746f6b656e49640000000000000000000000600082015250565b6000613cac601583612b8a565b9150613cb782613c76565b602082019050919050565b60006020820190508181036000830152613cdb81613c9f565b9050919050565b7f4f776e61626c653a206e6577206f776e657220697320746865207a65726f206160008201527f6464726573730000000000000000000000000000000000000000000000000000602082015250565b6000613d3e602683612b8a565b9150613d4982613ce2565b604082019050919050565b60006020820190508181036000830152613d6d81613d31565b9050919050565b7f4f776e61626c653a2063616c6c6572206973206e6f7420746865206f776e6572600082015250565b6000613daa602083612b8a565b9150613db582613d74565b602082019050919050565b60006020820190508181036000830152613dd981613d9d565b9050919050565b7f455243323938313a20726f79616c7479206665652077696c6c2065786365656460008201527f2073616c65507269636500000000000000000000000000000000000000000000602082015250565b6000613e3c602a83612b8a565b9150613e4782613de0565b604082019050919050565b60006020820190508181036000830152613e6b81613e2f565b9050919050565b7f455243323938313a20696e76616c696420726563656976657200000000000000600082015250565b6000613ea8601983612b8a565b9150613eb382613e72565b602082019050919050565b60006020820190508181036000830152613ed781613e9b565b9050919050565b6000604082019050613ef36000830185612ca7565b613f006020830184612ca7565b9392505050565b600081519050613f1681613553565b92915050565b600060208284031215613f3257613f31612938565b5b6000613f4084828501613f07565b91505092915050565b7f455243313135353a2063616c6c6572206973206e6f7420746f6b656e206f776e60008201527f6572206f7220617070726f766564000000000000000000000000000000000000602082015250565b6000613fa5602e83612b8a565b9150613fb082613f49565b604082019050919050565b60006020820190508181036000830152613fd481613f98565b9050919050565b7f455243323938313a20496e76616c696420706172616d65746572730000000000600082015250565b6000614011601b83612b8a565b915061401c82613fdb565b602082019050919050565b6000602082019050818103600083015261404081614004565b9050919050565b600081905092915050565b7f7b226e616d65223a200000000000000000000000000000000000000000000000600082015250565b6000614088600983614047565b915061409382614052565b600982019050919050565b60006140a982612b7f565b6140b38185614047565b93506140c3818560208601612b9b565b80840191505092915050565b7f2c20226465736372697074696f6e223a20220000000000000000000000000000600082015250565b6000614105601283614047565b9150614110826140cf565b601282019050919050565b7f2c2022696d616765223a20220000000000000000000000000000000000000000600082015250565b6000614151600c83614047565b915061415c8261411b565b600c82019050919050565b7f222c2022616e696d6174696f6e5f75726c223a20220000000000000000000000600082015250565b600061419d601583614047565b91506141a882614167565b601582019050919050565b7f222c20226261636b67726f756e645f636f6c6f72223a20220000000000000000600082015250565b60006141e9601883614047565b91506141f4826141b3565b601882019050919050565b7f227d000000000000000000000000000000000000000000000000000000000000600082015250565b6000614235600283614047565b9150614240826141ff565b600282019050919050565b60006142568261407b565b9150614262828861409e565b915061426d826140f8565b9150614279828761409e565b915061428482614144565b9150614290828661409e565b915061429b82614190565b91506142a7828561409e565b91506142b2826141dc565b91506142be828461409e565b91506142c982614228565b91508190509695505050505050565b7f646174613a6170706c69636174696f6e2f6a736f6e3b6261736536342c000000600082015250565b600061430e601d83614047565b9150614319826142d8565b601d82019050919050565b600061432f82614301565b915061433b828461409e565b915081905092915050565b7f455243313135353a206d696e7420746f20746865207a65726f2061646472657360008201527f7300000000000000000000000000000000000000000000000000000000000000602082015250565b60006143a2602183612b8a565b91506143ad82614346565b604082019050919050565b600060208201905081810360008301526143d181614395565b9050919050565b60006143e3826129a0565b91506143ee836129a0565b9250827fffffffffffffffffffffffffffffffffffffffffffffffffffffffffffffffff03821115614423576144226138ce565b5b828201905092915050565b60006040820190506144436000830185612a16565b6144506020830184612a16565b9392505050565b600060608201905081810360008301526144718186612bdf565b90506144806020830185612a16565b61448d6040830184612ca7565b949350505050565b7f455243313135353a2069647320616e6420616d6f756e7473206c656e6774682060008201527f6d69736d61746368000000000000000000000000000000000000000000000000602082015250565b60006144f1602883612b8a565b91506144fc82614495565b604082019050919050565b60006020820190508181036000830152614520816144e4565b9050919050565b7f455243313135353a207472616e7366657220746f20746865207a65726f20616460008201527f6472657373000000000000000000000000000000000000000000000000000000602082015250565b6000614583602583612b8a565b915061458e82614527565b604082019050919050565b600060208201905081810360008301526145b281614576565b9050919050565b7f455243313135353a20696e73756666696369656e742062616c616e636520666f60008201527f72207472616e7366657200000000000000000000000000000000000000000000602082015250565b6000614615602a83612b8a565b9150614620826145b9565b604082019050919050565b6000602082019050818103600083015261464481614608565b9050919050565b6000604082019050818103600083015261466581856131c0565b9050818103602083015261467981846131c0565b90509392505050565b7f455243313135353a2073657474696e6720617070726f76616c2073746174757360008201527f20666f722073656c660000000000000000000000000000000000000000000000602082015250565b60006146de602983612b8a565b91506146e982614682565b604082019050919050565b6000602082019050818103600083015261470d816146d1565b9050919050565b600060a0820190506147296000830188612ca7565b6147366020830187612ca7565b6147436040830186612a16565b6147506060830185612a16565b81810360808301526147628184613b9a565b90509695505050505050565b60008151905061477d81612a6c565b92915050565b60006020828403121561479957614798612938565b5b60006147a78482850161476e565b91505092915050565b60008160e01c9050919050565b600060033d11156147dc5760046000803e6147d96000516147b0565b90505b90565b600060443d1061486c576147f161292e565b60043d036004823e80513d602482011167ffffffffffffffff8211171561481957505061486c565b808201805167ffffffffffffffff811115614837575050505061486c565b80602083010160043d03850181111561485457505050505061486c565b61486382602001850186612d13565b82955050505050505b90565b7f455243313135353a207472616e7366657220746f206e6f6e2d4552433131353560008201527f526563656976657220696d706c656d656e746572000000000000000000000000602082015250565b60006148cb603483612b8a565b91506148d68261486f565b604082019050919050565b600060208201905081810360008301526148fa816148be565b9050919050565b7f455243313135353a204552433131353552656365697665722072656a6563746560008201527f6420746f6b656e73000000000000000000000000000000000000000000000000602082015250565b600061495d602883612b8a565b915061496882614901565b604082019050919050565b6000602082019050818103600083015261498c81614950565b9050919050565b600060a0820190506149a86000830188612ca7565b6149b56020830187612ca7565b81810360408301526149c781866131c0565b905081810360608301526149db81856131c0565b905081810360808301526149ef8184613b9a565b9050969550505050505056fe416e204e465420772f20494420257320686173206265656e206d696e74656420746f2025734142434445464748494a4b4c4d4e4f505152535455565758595a6162636465666768696a6b6c6d6e6f707172737475767778797a303132333435363738392b2fa2646970667358221220d26a9eea96d5b41a65403902198536705835cc5a33c509b7fb7fe14f352533aa64736f6c634300080d00334465706c6f79696e672061204d657461706c616e74735061737320636f6e7472616374",
  "linkReferences": {},
  "deployedLinkReferences": {}
}