{
  "_format": "hh-sol-artifact-1",
  "contractName": "MetaplantsFree",
  "sourceName": "contracts/MetaplantsFree.sol",
  "abi": [
    {
      "inputs": [
        {
          "internalType": "string",
          "name": "name_",
          "type": "string"
        },
        {
          "internalType": "string",
          "name": "symbol_",
          "type": "string"
        }
      ],
      "stateMutability": "nonpayable",
      "type": "constructor"
    },
    {
      "anonymous": false,
      "inputs": [
        {
          "indexed": true,
          "internalType": "address",
          "name": "account",
          "type": "address"
        },
        {
          "indexed": true,
          "internalType": "address",
          "name": "operator",
          "type": "address"
        },
        {
          "indexed": false,
          "internalType": "bool",
          "name": "approved",
          "type": "bool"
        }
      ],
      "name": "ApprovalForAll",
      "type": "event"
    },
    {
      "anonymous": false,
      "inputs": [
        {
          "indexed": false,
          "internalType": "address",
          "name": "sender",
          "type": "address"
        },
        {
          "indexed": false,
          "internalType": "uint256",
          "name": "tokenId",
          "type": "uint256"
        }
      ],
      "name": "Mint",
      "type": "event"
    },
    {
      "anonymous": false,
      "inputs": [
        {
          "indexed": false,
          "internalType": "address",
          "name": "",
          "type": "address"
        },
        {
          "indexed": false,
          "internalType": "address[]",
          "name": "",
          "type": "address[]"
        },
        {
          "indexed": false,
          "internalType": "uint256[]",
          "name": "",
          "type": "uint256[]"
        },
        {
          "indexed": false,
          "internalType": "uint256[]",
          "name": "",
          "type": "uint256[]"
        },
        {
          "indexed": false,
          "internalType": "bytes",
          "name": "",
          "type": "bytes"
        }
      ],
      "name": "SafeBatchDistributeFrom",
      "type": "event"
    },
    {
      "anonymous": false,
      "inputs": [
        {
          "indexed": true,
          "internalType": "address",
          "name": "operator",
          "type": "address"
        },
        {
          "indexed": true,
          "internalType": "address",
          "name": "from",
          "type": "address"
        },
        {
          "indexed": true,
          "internalType": "address",
          "name": "to",
          "type": "address"
        },
        {
          "indexed": false,
          "internalType": "uint256[]",
          "name": "ids",
          "type": "uint256[]"
        },
        {
          "indexed": false,
          "internalType": "uint256[]",
          "name": "values",
          "type": "uint256[]"
        }
      ],
      "name": "TransferBatch",
      "type": "event"
    },
    {
      "anonymous": false,
      "inputs": [
        {
          "indexed": true,
          "internalType": "address",
          "name": "operator",
          "type": "address"
        },
        {
          "indexed": true,
          "internalType": "address",
          "name": "from",
          "type": "address"
        },
        {
          "indexed": true,
          "internalType": "address",
          "name": "to",
          "type": "address"
        },
        {
          "indexed": false,
          "internalType": "uint256",
          "name": "id",
          "type": "uint256"
        },
        {
          "indexed": false,
          "internalType": "uint256",
          "name": "value",
          "type": "uint256"
        }
      ],
      "name": "TransferSingle",
      "type": "event"
    },
    {
      "anonymous": false,
      "inputs": [
        {
          "indexed": false,
          "internalType": "string",
          "name": "value",
          "type": "string"
        },
        {
          "indexed": true,
          "internalType": "uint256",
          "name": "id",
          "type": "uint256"
        }
      ],
      "name": "URI",
      "type": "event"
    },
    {
      "anonymous": false,
      "inputs": [
        {
          "indexed": false,
          "internalType": "address",
          "name": "sender",
          "type": "address"
        },
        {
          "indexed": false,
          "internalType": "uint256",
          "name": "tokenId",
          "type": "uint256"
        }
      ],
      "name": "UpdateTokenURI",
      "type": "event"
    },
    {
      "inputs": [
        {
          "internalType": "address",
          "name": "account",
          "type": "address"
        },
        {
          "internalType": "uint256",
          "name": "id",
          "type": "uint256"
        }
      ],
      "name": "balanceOf",
      "outputs": [
        {
          "internalType": "uint256",
          "name": "",
          "type": "uint256"
        }
      ],
      "stateMutability": "view",
      "type": "function"
    },
    {
      "inputs": [
        {
          "internalType": "address[]",
          "name": "accounts",
          "type": "address[]"
        },
        {
          "internalType": "uint256[]",
          "name": "ids",
          "type": "uint256[]"
        }
      ],
      "name": "balanceOfBatch",
      "outputs": [
        {
          "internalType": "uint256[]",
          "name": "",
          "type": "uint256[]"
        }
      ],
      "stateMutability": "view",
      "type": "function"
    },
    {
      "inputs": [],
      "name": "getCounter",
      "outputs": [
        {
          "internalType": "uint256",
          "name": "",
          "type": "uint256"
        }
      ],
      "stateMutability": "view",
      "type": "function"
    },
    {
      "inputs": [
        {
          "internalType": "uint256",
          "name": "tokenId",
          "type": "uint256"
        }
      ],
      "name": "getMinter",
      "outputs": [
        {
          "internalType": "address",
          "name": "",
          "type": "address"
        }
      ],
      "stateMutability": "view",
      "type": "function"
    },
    {
      "inputs": [
        {
          "internalType": "address",
          "name": "account",
          "type": "address"
        },
        {
          "internalType": "address",
          "name": "operator",
          "type": "address"
        }
      ],
      "name": "isApprovedForAll",
      "outputs": [
        {
          "internalType": "bool",
          "name": "",
          "type": "bool"
        }
      ],
      "stateMutability": "view",
      "type": "function"
    },
    {
      "inputs": [
        {
          "internalType": "string",
          "name": "imageURI",
          "type": "string"
        },
        {
          "internalType": "string",
          "name": "animationURI",
          "type": "string"
        },
        {
          "internalType": "string",
          "name": "backgroundColor",
          "type": "string"
        },
        {
          "internalType": "string",
          "name": "name",
          "type": "string"
        },
        {
          "internalType": "string",
          "name": "description",
          "type": "string"
        },
        {
          "internalType": "uint256",
          "name": "amount",
          "type": "uint256"
        }
      ],
      "name": "mint",
      "outputs": [],
      "stateMutability": "nonpayable",
      "type": "function"
    },
    {
      "inputs": [],
      "name": "name",
      "outputs": [
        {
          "internalType": "string",
          "name": "",
          "type": "string"
        }
      ],
      "stateMutability": "view",
      "type": "function"
    },
    {
      "inputs": [
        {
          "internalType": "address",
          "name": "from",
          "type": "address"
        },
        {
          "internalType": "address[]",
          "name": "toAddresses",
          "type": "address[]"
        },
        {
          "internalType": "uint256[]",
          "name": "ids",
          "type": "uint256[]"
        },
        {
          "internalType": "uint256[]",
          "name": "amounts",
          "type": "uint256[]"
        },
        {
          "internalType": "bytes",
          "name": "data",
          "type": "bytes"
        }
      ],
      "name": "safeBatchDistributeFrom",
      "outputs": [],
      "stateMutability": "nonpayable",
      "type": "function"
    },
    {
      "inputs": [
        {
          "internalType": "address",
          "name": "from",
          "type": "address"
        },
        {
          "internalType": "address",
          "name": "to",
          "type": "address"
        },
        {
          "internalType": "uint256[]",
          "name": "ids",
          "type": "uint256[]"
        },
        {
          "internalType": "uint256[]",
          "name": "amounts",
          "type": "uint256[]"
        },
        {
          "internalType": "bytes",
          "name": "data",
          "type": "bytes"
        }
      ],
      "name": "safeBatchTransferFrom",
      "outputs": [],
      "stateMutability": "nonpayable",
      "type": "function"
    },
    {
      "inputs": [
        {
          "internalType": "address",
          "name": "from",
          "type": "address"
        },
        {
          "internalType": "address",
          "name": "to",
          "type": "address"
        },
        {
          "internalType": "uint256",
          "name": "id",
          "type": "uint256"
        },
        {
          "internalType": "uint256",
          "name": "amount",
          "type": "uint256"
        },
        {
          "internalType": "bytes",
          "name": "data",
          "type": "bytes"
        }
      ],
      "name": "safeTransferFrom",
      "outputs": [],
      "stateMutability": "nonpayable",
      "type": "function"
    },
    {
      "inputs": [
        {
          "internalType": "address",
          "name": "operator",
          "type": "address"
        },
        {
          "internalType": "bool",
          "name": "approved",
          "type": "bool"
        }
      ],
      "name": "setApprovalForAll",
      "outputs": [],
      "stateMutability": "nonpayable",
      "type": "function"
    },
    {
      "inputs": [
        {
          "internalType": "bytes4",
          "name": "interfaceId",
          "type": "bytes4"
        }
      ],
      "name": "supportsInterface",
      "outputs": [
        {
          "internalType": "bool",
          "name": "",
          "type": "bool"
        }
      ],
      "stateMutability": "view",
      "type": "function"
    },
    {
      "inputs": [],
      "name": "symbol",
      "outputs": [
        {
          "internalType": "string",
          "name": "",
          "type": "string"
        }
      ],
      "stateMutability": "view",
      "type": "function"
    },
    {
      "inputs": [
        {
          "internalType": "uint256",
          "name": "tokenId",
          "type": "uint256"
        },
        {
          "internalType": "string",
          "name": "imageURI",
          "type": "string"
        },
        {
          "internalType": "string",
          "name": "animationURI",
          "type": "string"
        },
        {
          "internalType": "string",
          "name": "backgroundColor",
          "type": "string"
        }
      ],
      "name": "updateTokenURI",
      "outputs": [],
      "stateMutability": "nonpayable",
      "type": "function"
    },
    {
      "inputs": [
        {
          "internalType": "uint256",
          "name": "tokenId",
          "type": "uint256"
        }
      ],
      "name": "uri",
      "outputs": [
        {
          "internalType": "string",
          "name": "",
          "type": "string"
        }
      ],
      "stateMutability": "view",
      "type": "function"
    }
  ],
  "bytecode": "0x60806040523480156200001157600080fd5b506040516200442c3803806200442c8339818101604052810190620000379190620002cc565b604051806020016040528060008152506200005881620000c260201b60201c565b50816003908051906020019062000071929190620001aa565b5080600490805190602001906200008a929190620001aa565b50620000ba6040518060600160405280602381526020016200440960239139620000de60201b62000f171760201c565b505062000530565b8060029080519060200190620000da929190620001aa565b5050565b6200017e81604051602401620000f5919062000380565b6040516020818303038152906040527f41304fac000000000000000000000000000000000000000000000000000000007bffffffffffffffffffffffffffffffffffffffffffffffffffffffff19166020820180517bffffffffffffffffffffffffffffffffffffffffffffffffffffffff83818316178352505050506200018160201b60201c565b50565b60008151905060006a636f6e736f6c652e6c6f679050602083016000808483855afa5050505050565b828054620001b89062000455565b90600052602060002090601f016020900481019282620001dc576000855562000228565b82601f10620001f757805160ff191683800117855562000228565b8280016001018555821562000228579182015b82811115620002275782518255916020019190600101906200020a565b5b5090506200023791906200023b565b5090565b5b80821115620002565760008160009055506001016200023c565b5090565b6000620002716200026b84620003cd565b620003a4565b9050828152602081018484840111156200028a57600080fd5b620002978482856200041f565b509392505050565b600082601f830112620002b157600080fd5b8151620002c38482602086016200025a565b91505092915050565b60008060408385031215620002e057600080fd5b600083015167ffffffffffffffff811115620002fb57600080fd5b62000309858286016200029f565b925050602083015167ffffffffffffffff8111156200032757600080fd5b62000335858286016200029f565b9150509250929050565b60006200034c8262000403565b6200035881856200040e565b93506200036a8185602086016200041f565b62000375816200051f565b840191505092915050565b600060208201905081810360008301526200039c81846200033f565b905092915050565b6000620003b0620003c3565b9050620003be82826200048b565b919050565b6000604051905090565b600067ffffffffffffffff821115620003eb57620003ea620004f0565b5b620003f6826200051f565b9050602081019050919050565b600081519050919050565b600082825260208201905092915050565b60005b838110156200043f57808201518184015260208101905062000422565b838111156200044f576000848401525b50505050565b600060028204905060018216806200046e57607f821691505b60208210811415620004855762000484620004c1565b5b50919050565b62000496826200051f565b810181811067ffffffffffffffff82111715620004b857620004b7620004f0565b5b80604052505050565b7f4e487b7100000000000000000000000000000000000000000000000000000000600052602260045260246000fd5b7f4e487b7100000000000000000000000000000000000000000000000000000000600052604160045260246000fd5b6000601f19601f8301169050919050565b613ec980620005406000396000f3fe608060405234801561001057600080fd5b50600436106100f45760003560e01c806363b9161511610097578063a621021511610066578063a621021514610297578063e5888368146102b3578063e985e9c5146102cf578063f242432a146102ff576100f4565b806363b91615146102235780638ada066e1461023f57806395d89b411461025d578063a22cb4651461027b576100f4565b80630e89341c116100d35780630e89341c146101775780632eb2c2d6146101a75780634e1273f4146101c35780635b7121f8146101f3576100f4565b8062fdd58e146100f957806301ffc9a71461012957806306fdde0314610159575b600080fd5b610113600480360381019061010e91906126eb565b61031b565b6040516101209190613318565b60405180910390f35b610143600480360381019061013e9190612793565b6103e4565b604051610150919061311d565b60405180910390f35b6101616104c6565b60405161016e9190613138565b60405180910390f35b610191600480360381019061018c91906128e6565b610554565b60405161019e9190613138565b60405180910390f35b6101c160048036038101906101bc919061248a565b6105f9565b005b6101dd60048036038101906101d89190612727565b61069a565b6040516101ea91906130c4565b60405180910390f35b61020d600480360381019061020891906128e6565b61084b565b60405161021a9190612f4f565b60405180910390f35b61023d600480360381019061023891906125d8565b6108b9565b005b61024761096a565b6040516102549190613318565b60405180910390f35b61026561097b565b6040516102729190613138565b60405180910390f35b610295600480360381019061029091906126af565b610a09565b005b6102b160048036038101906102ac919061290f565b610a1f565b005b6102cd60048036038101906102c891906127e5565b610c69565b005b6102e960048036038101906102e4919061244e565b610de2565b6040516102f6919061311d565b60405180910390f35b61031960048036038101906103149190612549565b610e76565b005b60008073ffffffffffffffffffffffffffffffffffffffff168373ffffffffffffffffffffffffffffffffffffffff16141561038c576040517f08c379a0000000000000000000000000000000000000000000000000000000008152600401610383906131d8565b60405180910390fd5b60008083815260200190815260200160002060008473ffffffffffffffffffffffffffffffffffffffff1673ffffffffffffffffffffffffffffffffffffffff16815260200190815260200160002054905092915050565b60007fd9b67a26000000000000000000000000000000000000000000000000000000007bffffffffffffffffffffffffffffffffffffffffffffffffffffffff1916827bffffffffffffffffffffffffffffffffffffffffffffffffffffffff191614806104af57507f0e89341c000000000000000000000000000000000000000000000000000000007bffffffffffffffffffffffffffffffffffffffffffffffffffffffff1916827bffffffffffffffffffffffffffffffffffffffffffffffffffffffff1916145b806104bf57506104be82610fb0565b5b9050919050565b600380546104d3906136bb565b80601f01602080910402602001604051908101604052809291908181526020018280546104ff906136bb565b801561054c5780601f106105215761010080835404028352916020019161054c565b820191906000526020600020905b81548152906001019060200180831161052f57829003601f168201915b505050505081565b6060600860008381526020019081526020016000208054610574906136bb565b80601f01602080910402602001604051908101604052809291908181526020018280546105a0906136bb565b80156105ed5780601f106105c2576101008083540402835291602001916105ed565b820191906000526020600020905b8154815290600101906020018083116105d057829003601f168201915b50505050509050919050565b61060161101a565b73ffffffffffffffffffffffffffffffffffffffff168573ffffffffffffffffffffffffffffffffffffffff16148061064757506106468561064161101a565b610de2565b5b610686576040517f08c379a000000000000000000000000000000000000000000000000000000000815260040161067d906131f8565b60405180910390fd5b6106938585858585611022565b5050505050565b606081518351146106e0576040517f08c379a00000000000000000000000000000000000000000000000000000000081526004016106d790613298565b60405180910390fd5b6000835167ffffffffffffffff811115610723577f4e487b7100000000000000000000000000000000000000000000000000000000600052604160045260246000fd5b6040519080825280602002602001820160405280156107515781602001602082028036833780820191505090505b50905060005b8451811015610840576107ea85828151811061079c577f4e487b7100000000000000000000000000000000000000000000000000000000600052603260045260246000fd5b60200260200101518583815181106107dd577f4e487b7100000000000000000000000000000000000000000000000000000000600052603260045260246000fd5b602002602001015161031b565b828281518110610823577f4e487b7100000000000000000000000000000000000000000000000000000000600052603260045260246000fd5b602002602001018181525050806108399061371e565b9050610757565b508091505092915050565b600060078281548110610887577f4e487b7100000000000000000000000000000000000000000000000000000000600052603260045260246000fd5b9060005260206000200160009054906101000a900473ffffffffffffffffffffffffffffffffffffffff169050919050565b60005b84518110156109235761091286868381518110610902577f4e487b7100000000000000000000000000000000000000000000000000000000600052603260045260246000fd5b60200260200101518686866105f9565b8061091c9061371e565b90506108bc565b507fe9cc37c72517b260e8c6b7449767f519b86f22ec989025e956f2e7a57e41d6db338585858560405161095b95949392919061302c565b60405180910390a15050505050565b60006109766005611390565b905090565b60048054610988906136bb565b80601f01602080910402602001604051908101604052809291908181526020018280546109b4906136bb565b8015610a015780601f106109d657610100808354040283529160200191610a01565b820191906000526020600020905b8154815290600101906020018083116109e457829003601f168201915b505050505081565b610a1b610a1461101a565b838361139e565b5050565b6001610a2b6005611390565b610a3591906135d1565b841115610a77576040517f08c379a0000000000000000000000000000000000000000000000000000000008152600401610a6e90613258565b60405180910390fd5b60078481548110610ab1577f4e487b7100000000000000000000000000000000000000000000000000000000600052603260045260246000fd5b9060005260206000200160009054906101000a900473ffffffffffffffffffffffffffffffffffffffff1673ffffffffffffffffffffffffffffffffffffffff163373ffffffffffffffffffffffffffffffffffffffff1614610b49576040517f08c379a0000000000000000000000000000000000000000000000000000000008152600401610b40906131b8565b60405180910390fd5b610c2a84610c2585858560068a81548110610b8d577f4e487b7100000000000000000000000000000000000000000000000000000000600052603260045260246000fd5b906000526020600020018054610ba2906136bb565b80601f0160208091040260200160405190810160405280929190818152602001828054610bce906136bb565b8015610c1b5780601f10610bf057610100808354040283529160200191610c1b565b820191906000526020600020905b815481529060010190602001808311610bfe57829003601f168201915b505050505061150b565b61156a565b7ffcc700301bdb585fff781de6f961d84cda2143e06bdac09b371dcd3f6c661ca23385604051610c5b92919061309b565b60405180910390a150505050565b6000610c756005611390565b905060008484604051602001610c8c929190612e73565b60405160208183030381529060405290506000610cab8989898561150b565b9050610cc833848660405180602001604052806000815250611596565b610cd2838261156a565b600682908060018154018082558091505060019003906000526020600020016000909190919091509080519060200190610d0d929190612146565b506007339080600181540180825580915050600190039060005260206000200160009091909190916101000a81548173ffffffffffffffffffffffffffffffffffffffff021916908373ffffffffffffffffffffffffffffffffffffffff160217905550610d94604051806060016040528060258152602001613e2f602591398433611747565b610d9e60056117e6565b7f0f6798a560793a54c3bcfe86a93cde1e73087d944c0ea20544137d41213968853384604051610dcf92919061309b565b60405180910390a1505050505050505050565b6000600160008473ffffffffffffffffffffffffffffffffffffffff1673ffffffffffffffffffffffffffffffffffffffff16815260200190815260200160002060008373ffffffffffffffffffffffffffffffffffffffff1673ffffffffffffffffffffffffffffffffffffffff16815260200190815260200160002060009054906101000a900460ff16905092915050565b610e7e61101a565b73ffffffffffffffffffffffffffffffffffffffff168573ffffffffffffffffffffffffffffffffffffffff161480610ec45750610ec385610ebe61101a565b610de2565b5b610f03576040517f08c379a0000000000000000000000000000000000000000000000000000000008152600401610efa906131f8565b60405180910390fd5b610f1085858585856117fc565b5050505050565b610fad81604051602401610f2b9190613138565b6040516020818303038152906040527f41304fac000000000000000000000000000000000000000000000000000000007bffffffffffffffffffffffffffffffffffffffffffffffffffffffff19166020820180517bffffffffffffffffffffffffffffffffffffffffffffffffffffffff8381831617835250505050611a98565b50565b60007f01ffc9a7000000000000000000000000000000000000000000000000000000007bffffffffffffffffffffffffffffffffffffffffffffffffffffffff1916827bffffffffffffffffffffffffffffffffffffffffffffffffffffffff1916149050919050565b600033905090565b8151835114611066576040517f08c379a000000000000000000000000000000000000000000000000000000000815260040161105d906132b8565b60405180910390fd5b600073ffffffffffffffffffffffffffffffffffffffff168473ffffffffffffffffffffffffffffffffffffffff1614156110d6576040517f08c379a00000000000000000000000000000000000000000000000000000000081526004016110cd90613218565b60405180910390fd5b60006110e061101a565b90506110f0818787878787611ac1565b60005b84518110156112ed576000858281518110611137577f4e487b7100000000000000000000000000000000000000000000000000000000600052603260045260246000fd5b60200260200101519050600085838151811061117c577f4e487b7100000000000000000000000000000000000000000000000000000000600052603260045260246000fd5b60200260200101519050600080600084815260200190815260200160002060008b73ffffffffffffffffffffffffffffffffffffffff1673ffffffffffffffffffffffffffffffffffffffff1681526020019081526020016000205490508181101561121d576040517f08c379a000000000000000000000000000000000000000000000000000000000815260040161121490613238565b60405180910390fd5b81810360008085815260200190815260200160002060008c73ffffffffffffffffffffffffffffffffffffffff1673ffffffffffffffffffffffffffffffffffffffff168152602001908152602001600020819055508160008085815260200190815260200160002060008b73ffffffffffffffffffffffffffffffffffffffff1673ffffffffffffffffffffffffffffffffffffffff16815260200190815260200160002060008282546112d291906134f0565b92505081905550505050806112e69061371e565b90506110f3565b508473ffffffffffffffffffffffffffffffffffffffff168673ffffffffffffffffffffffffffffffffffffffff168273ffffffffffffffffffffffffffffffffffffffff167f4a39dc06d4c0dbc64b70af90fd698a233a518aa5d07e595d983b8c0526c8f7fb87876040516113649291906130e6565b60405180910390a461137a818787878787611ac9565b611388818787878787611ad1565b505050505050565b600081600001549050919050565b8173ffffffffffffffffffffffffffffffffffffffff168373ffffffffffffffffffffffffffffffffffffffff16141561140d576040517f08c379a000000000000000000000000000000000000000000000000000000000815260040161140490613278565b60405180910390fd5b80600160008573ffffffffffffffffffffffffffffffffffffffff1673ffffffffffffffffffffffffffffffffffffffff16815260200190815260200160002060008473ffffffffffffffffffffffffffffffffffffffff1673ffffffffffffffffffffffffffffffffffffffff16815260200190815260200160002060006101000a81548160ff0219169083151502179055508173ffffffffffffffffffffffffffffffffffffffff168373ffffffffffffffffffffffffffffffffffffffff167f17307eab39ab6107e8899845ad3d59bd9653f200f220920489ca2b5937696c31836040516114fe919061311d565b60405180910390a3505050565b6060600061153d838787876040516020016115299493929190612eb8565b604051602081830303815290604052611cb8565b9050806040516020016115509190612f2d565b604051602081830303815290604052915050949350505050565b80600860008481526020019081526020016000209080519060200190611591929190612146565b505050565b600073ffffffffffffffffffffffffffffffffffffffff168473ffffffffffffffffffffffffffffffffffffffff161415611606576040517f08c379a00000000000000000000000000000000000000000000000000000000081526004016115fd906132d8565b60405180910390fd5b600061161061101a565b9050600061161d85611e76565b9050600061162a85611e76565b905061163b83600089858589611ac1565b8460008088815260200190815260200160002060008973ffffffffffffffffffffffffffffffffffffffff1673ffffffffffffffffffffffffffffffffffffffff168152602001908152602001600020600082825461169a91906134f0565b925050819055508673ffffffffffffffffffffffffffffffffffffffff16600073ffffffffffffffffffffffffffffffffffffffff168473ffffffffffffffffffffffffffffffffffffffff167fc3d58168c5ae7397731d063d5bbf3d657854427343f4c083240f7aacaa2d0f628989604051611718929190613333565b60405180910390a461172f83600089858589611ac9565b61173e83600089898989611f3c565b50505050505050565b6117e183838360405160240161175f9392919061315a565b6040516020818303038152906040527f1c7ec448000000000000000000000000000000000000000000000000000000007bffffffffffffffffffffffffffffffffffffffffffffffffffffffff19166020820180517bffffffffffffffffffffffffffffffffffffffffffffffffffffffff8381831617835250505050611a98565b505050565b6001816000016000828254019250508190555050565b600073ffffffffffffffffffffffffffffffffffffffff168473ffffffffffffffffffffffffffffffffffffffff16141561186c576040517f08c379a000000000000000000000000000000000000000000000000000000000815260040161186390613218565b60405180910390fd5b600061187661101a565b9050600061188385611e76565b9050600061189085611e76565b90506118a0838989858589611ac1565b600080600088815260200190815260200160002060008a73ffffffffffffffffffffffffffffffffffffffff1673ffffffffffffffffffffffffffffffffffffffff16815260200190815260200160002054905085811015611937576040517f08c379a000000000000000000000000000000000000000000000000000000000815260040161192e90613238565b60405180910390fd5b85810360008089815260200190815260200160002060008b73ffffffffffffffffffffffffffffffffffffffff1673ffffffffffffffffffffffffffffffffffffffff168152602001908152602001600020819055508560008089815260200190815260200160002060008a73ffffffffffffffffffffffffffffffffffffffff1673ffffffffffffffffffffffffffffffffffffffff16815260200190815260200160002060008282546119ec91906134f0565b925050819055508773ffffffffffffffffffffffffffffffffffffffff168973ffffffffffffffffffffffffffffffffffffffff168573ffffffffffffffffffffffffffffffffffffffff167fc3d58168c5ae7397731d063d5bbf3d657854427343f4c083240f7aacaa2d0f628a8a604051611a69929190613333565b60405180910390a4611a7f848a8a86868a611ac9565b611a8d848a8a8a8a8a611f3c565b505050505050505050565b60008151905060006a636f6e736f6c652e6c6f679050602083016000808483855afa5050505050565b505050505050565b505050505050565b611af08473ffffffffffffffffffffffffffffffffffffffff16612123565b15611cb0578373ffffffffffffffffffffffffffffffffffffffff1663bc197c8187878686866040518663ffffffff1660e01b8152600401611b36959493929190612f6a565b602060405180830381600087803b158015611b5057600080fd5b505af1925050508015611b8157506040513d601f19601f82011682018060405250810190611b7e91906127bc565b60015b611c2757611b8d613823565b806308c379a01415611bea5750611ba2613d3c565b80611bad5750611bec565b806040517f08c379a0000000000000000000000000000000000000000000000000000000008152600401611be19190613138565b60405180910390fd5b505b6040517f08c379a0000000000000000000000000000000000000000000000000000000008152600401611c1e906132f8565b60405180910390fd5b63bc197c8160e01b7bffffffffffffffffffffffffffffffffffffffffffffffffffffffff1916817bffffffffffffffffffffffffffffffffffffffffffffffffffffffff191614611cae576040517f08c379a0000000000000000000000000000000000000000000000000000000008152600401611ca590613198565b60405180910390fd5b505b505050505050565b60606000825190506000811415611ce15760405180602001604052806000815250915050611e71565b60006003600283611cf291906134f0565b611cfc9190613546565b6004611d089190613577565b90506000602082611d1991906134f0565b67ffffffffffffffff811115611d58577f4e487b7100000000000000000000000000000000000000000000000000000000600052604160045260246000fd5b6040519080825280601f01601f191660200182016040528015611d8a5781602001600182028036833780820191505090505b5090506000604051806060016040528060408152602001613e54604091399050600181016020830160005b86811015611e2e5760038101905062ffffff818a015116603f8160121c168401518060081b905060ff603f83600c1c1686015116810190508060081b905060ff603f8360061c1686015116810190508060081b905060ff603f831686015116810190508060e01b90508084526004840193505050611db5565b506003860660018114611e485760028114611e5857611e63565b613d3d60f01b6002830352611e63565b603d60f81b60018303525b508484525050819450505050505b919050565b60606000600167ffffffffffffffff811115611ebb577f4e487b7100000000000000000000000000000000000000000000000000000000600052604160045260246000fd5b604051908082528060200260200182016040528015611ee95781602001602082028036833780820191505090505b5090508281600081518110611f27577f4e487b7100000000000000000000000000000000000000000000000000000000600052603260045260246000fd5b60200260200101818152505080915050919050565b611f5b8473ffffffffffffffffffffffffffffffffffffffff16612123565b1561211b578373ffffffffffffffffffffffffffffffffffffffff1663f23a6e6187878686866040518663ffffffff1660e01b8152600401611fa1959493929190612fd2565b602060405180830381600087803b158015611fbb57600080fd5b505af1925050508015611fec57506040513d601f19601f82011682018060405250810190611fe991906127bc565b60015b61209257611ff8613823565b806308c379a01415612055575061200d613d3c565b806120185750612057565b806040517f08c379a000000000000000000000000000000000000000000000000000000000815260040161204c9190613138565b60405180910390fd5b505b6040517f08c379a0000000000000000000000000000000000000000000000000000000008152600401612089906132f8565b60405180910390fd5b63f23a6e6160e01b7bffffffffffffffffffffffffffffffffffffffffffffffffffffffff1916817bffffffffffffffffffffffffffffffffffffffffffffffffffffffff191614612119576040517f08c379a000000000000000000000000000000000000000000000000000000000815260040161211090613198565b60405180910390fd5b505b505050505050565b6000808273ffffffffffffffffffffffffffffffffffffffff163b119050919050565b828054612152906136bb565b90600052602060002090601f01602090048101928261217457600085556121bb565b82601f1061218d57805160ff19168380011785556121bb565b828001600101855582156121bb579182015b828111156121ba57825182559160200191906001019061219f565b5b5090506121c891906121cc565b5090565b5b808211156121e55760008160009055506001016121cd565b5090565b60006121fc6121f784613381565b61335c565b9050808382526020820190508285602086028201111561221b57600080fd5b60005b8581101561224b5781612231888261233d565b84526020840193506020830192505060018101905061221e565b5050509392505050565b6000612268612263846133ad565b61335c565b9050808382526020820190508285602086028201111561228757600080fd5b60005b858110156122b7578161229d8882612439565b84526020840193506020830192505060018101905061228a565b5050509392505050565b60006122d46122cf846133d9565b61335c565b9050828152602081018484840111156122ec57600080fd5b6122f7848285613679565b509392505050565b600061231261230d8461340a565b61335c565b90508281526020810184848401111561232a57600080fd5b612335848285613679565b509392505050565b60008135905061234c81613dd2565b92915050565b600082601f83011261236357600080fd5b81356123738482602086016121e9565b91505092915050565b600082601f83011261238d57600080fd5b813561239d848260208601612255565b91505092915050565b6000813590506123b581613de9565b92915050565b6000813590506123ca81613e00565b92915050565b6000815190506123df81613e00565b92915050565b600082601f8301126123f657600080fd5b81356124068482602086016122c1565b91505092915050565b600082601f83011261242057600080fd5b81356124308482602086016122ff565b91505092915050565b60008135905061244881613e17565b92915050565b6000806040838503121561246157600080fd5b600061246f8582860161233d565b92505060206124808582860161233d565b9150509250929050565b600080600080600060a086880312156124a257600080fd5b60006124b08882890161233d565b95505060206124c18882890161233d565b945050604086013567ffffffffffffffff8111156124de57600080fd5b6124ea8882890161237c565b935050606086013567ffffffffffffffff81111561250757600080fd5b6125138882890161237c565b925050608086013567ffffffffffffffff81111561253057600080fd5b61253c888289016123e5565b9150509295509295909350565b600080600080600060a0868803121561256157600080fd5b600061256f8882890161233d565b95505060206125808882890161233d565b945050604061259188828901612439565b93505060606125a288828901612439565b925050608086013567ffffffffffffffff8111156125bf57600080fd5b6125cb888289016123e5565b9150509295509295909350565b600080600080600060a086880312156125f057600080fd5b60006125fe8882890161233d565b955050602086013567ffffffffffffffff81111561261b57600080fd5b61262788828901612352565b945050604086013567ffffffffffffffff81111561264457600080fd5b6126508882890161237c565b935050606086013567ffffffffffffffff81111561266d57600080fd5b6126798882890161237c565b925050608086013567ffffffffffffffff81111561269657600080fd5b6126a2888289016123e5565b9150509295509295909350565b600080604083850312156126c257600080fd5b60006126d08582860161233d565b92505060206126e1858286016123a6565b9150509250929050565b600080604083850312156126fe57600080fd5b600061270c8582860161233d565b925050602061271d85828601612439565b9150509250929050565b6000806040838503121561273a57600080fd5b600083013567ffffffffffffffff81111561275457600080fd5b61276085828601612352565b925050602083013567ffffffffffffffff81111561277d57600080fd5b6127898582860161237c565b9150509250929050565b6000602082840312156127a557600080fd5b60006127b3848285016123bb565b91505092915050565b6000602082840312156127ce57600080fd5b60006127dc848285016123d0565b91505092915050565b60008060008060008060c087890312156127fe57600080fd5b600087013567ffffffffffffffff81111561281857600080fd5b61282489828a0161240f565b965050602087013567ffffffffffffffff81111561284157600080fd5b61284d89828a0161240f565b955050604087013567ffffffffffffffff81111561286a57600080fd5b61287689828a0161240f565b945050606087013567ffffffffffffffff81111561289357600080fd5b61289f89828a0161240f565b935050608087013567ffffffffffffffff8111156128bc57600080fd5b6128c889828a0161240f565b92505060a06128d989828a01612439565b9150509295509295509295565b6000602082840312156128f857600080fd5b600061290684828501612439565b91505092915050565b6000806000806080858703121561292557600080fd5b600061293387828801612439565b945050602085013567ffffffffffffffff81111561295057600080fd5b61295c8782880161240f565b935050604085013567ffffffffffffffff81111561297957600080fd5b6129858782880161240f565b925050606085013567ffffffffffffffff8111156129a257600080fd5b6129ae8782880161240f565b91505092959194509250565b60006129c683836129ea565b60208301905092915050565b60006129de8383612e55565b60208301905092915050565b6129f381613605565b82525050565b612a0281613605565b82525050565b6000612a138261345b565b612a1d81856134a1565b9350612a288361343b565b8060005b83811015612a59578151612a4088826129ba565b9750612a4b83613487565b925050600181019050612a2c565b5085935050505092915050565b6000612a7182613466565b612a7b81856134b2565b9350612a868361344b565b8060005b83811015612ab7578151612a9e88826129d2565b9750612aa983613494565b925050600181019050612a8a565b5085935050505092915050565b612acd81613617565b82525050565b6000612ade82613471565b612ae881856134c3565b9350612af8818560208601613688565b612b0181613845565b840191505092915050565b6000612b178261347c565b612b2181856134d4565b9350612b31818560208601613688565b612b3a81613845565b840191505092915050565b6000612b508261347c565b612b5a81856134e5565b9350612b6a818560208601613688565b80840191505092915050565b6000612b836028836134d4565b9150612b8e82613863565b604082019050919050565b6000612ba66013836134e5565b9150612bb1826138b2565b601382019050919050565b6000612bc9601f836134d4565b9150612bd4826138db565b602082019050919050565b6000612bec602a836134d4565b9150612bf782613904565b604082019050919050565b6000612c0f602e836134d4565b9150612c1a82613953565b604082019050919050565b6000612c326001836134e5565b9150612c3d826139a2565b600182019050919050565b6000612c556025836134d4565b9150612c60826139cb565b604082019050919050565b6000612c78600c836134e5565b9150612c8382613a1a565b600c82019050919050565b6000612c9b6018836134e5565b9150612ca682613a43565b601882019050919050565b6000612cbe6002836134e5565b9150612cc982613a6c565b600282019050919050565b6000612ce1602a836134d4565b9150612cec82613a95565b604082019050919050565b6000612d046009836134e5565b9150612d0f82613ae4565b600982019050919050565b6000612d276001836134e5565b9150612d3282613b0d565b600182019050919050565b6000612d4a601d836134e5565b9150612d5582613b36565b601d82019050919050565b6000612d6d6015836134d4565b9150612d7882613b5f565b602082019050919050565b6000612d906029836134d4565b9150612d9b82613b88565b604082019050919050565b6000612db36029836134d4565b9150612dbe82613bd7565b604082019050919050565b6000612dd66028836134d4565b9150612de182613c26565b604082019050919050565b6000612df96021836134d4565b9150612e0482613c75565b604082019050919050565b6000612e1c6034836134d4565b9150612e2782613cc4565b604082019050919050565b6000612e3f6015836134e5565b9150612e4a82613d13565b601582019050919050565b612e5e8161366f565b82525050565b612e6d8161366f565b82525050565b6000612e7e82612cf7565b9150612e8a8285612b45565b9150612e9582612b99565b9150612ea18284612b45565b9150612eac82612c25565b91508190509392505050565b6000612ec382612d1a565b9150612ecf8287612b45565b9150612eda82612c6b565b9150612ee68286612b45565b9150612ef182612e32565b9150612efd8285612b45565b9150612f0882612c8e565b9150612f148284612b45565b9150612f1f82612cb1565b915081905095945050505050565b6000612f3882612d3d565b9150612f448284612b45565b915081905092915050565b6000602082019050612f6460008301846129f9565b92915050565b600060a082019050612f7f60008301886129f9565b612f8c60208301876129f9565b8181036040830152612f9e8186612a66565b90508181036060830152612fb28185612a66565b90508181036080830152612fc68184612ad3565b90509695505050505050565b600060a082019050612fe760008301886129f9565b612ff460208301876129f9565b6130016040830186612e64565b61300e6060830185612e64565b81810360808301526130208184612ad3565b90509695505050505050565b600060a08201905061304160008301886129f9565b81810360208301526130538187612a08565b905081810360408301526130678186612a66565b9050818103606083015261307b8185612a66565b9050818103608083015261308f8184612ad3565b90509695505050505050565b60006040820190506130b060008301856129f9565b6130bd6020830184612e64565b9392505050565b600060208201905081810360008301526130de8184612a66565b905092915050565b600060408201905081810360008301526131008185612a66565b905081810360208301526131148184612a66565b90509392505050565b60006020820190506131326000830184612ac4565b92915050565b600060208201905081810360008301526131528184612b0c565b905092915050565b600060608201905081810360008301526131748186612b0c565b90506131836020830185612e64565b61319060408301846129f9565b949350505050565b600060208201905081810360008301526131b181612b76565b9050919050565b600060208201905081810360008301526131d181612bbc565b9050919050565b600060208201905081810360008301526131f181612bdf565b9050919050565b6000602082019050818103600083015261321181612c02565b9050919050565b6000602082019050818103600083015261323181612c48565b9050919050565b6000602082019050818103600083015261325181612cd4565b9050919050565b6000602082019050818103600083015261327181612d60565b9050919050565b6000602082019050818103600083015261329181612d83565b9050919050565b600060208201905081810360008301526132b181612da6565b9050919050565b600060208201905081810360008301526132d181612dc9565b9050919050565b600060208201905081810360008301526132f181612dec565b9050919050565b6000602082019050818103600083015261331181612e0f565b9050919050565b600060208201905061332d6000830184612e64565b92915050565b60006040820190506133486000830185612e64565b6133556020830184612e64565b9392505050565b6000613366613377565b905061337282826136ed565b919050565b6000604051905090565b600067ffffffffffffffff82111561339c5761339b6137f4565b5b602082029050602081019050919050565b600067ffffffffffffffff8211156133c8576133c76137f4565b5b602082029050602081019050919050565b600067ffffffffffffffff8211156133f4576133f36137f4565b5b6133fd82613845565b9050602081019050919050565b600067ffffffffffffffff821115613425576134246137f4565b5b61342e82613845565b9050602081019050919050565b6000819050602082019050919050565b6000819050602082019050919050565b600081519050919050565b600081519050919050565b600081519050919050565b600081519050919050565b6000602082019050919050565b6000602082019050919050565b600082825260208201905092915050565b600082825260208201905092915050565b600082825260208201905092915050565b600082825260208201905092915050565b600081905092915050565b60006134fb8261366f565b91506135068361366f565b9250827fffffffffffffffffffffffffffffffffffffffffffffffffffffffffffffffff0382111561353b5761353a613767565b5b828201905092915050565b60006135518261366f565b915061355c8361366f565b92508261356c5761356b613796565b5b828204905092915050565b60006135828261366f565b915061358d8361366f565b9250817fffffffffffffffffffffffffffffffffffffffffffffffffffffffffffffffff04831182151516156135c6576135c5613767565b5b828202905092915050565b60006135dc8261366f565b91506135e78361366f565b9250828210156135fa576135f9613767565b5b828203905092915050565b60006136108261364f565b9050919050565b60008115159050919050565b60007fffffffff0000000000000000000000000000000000000000000000000000000082169050919050565b600073ffffffffffffffffffffffffffffffffffffffff82169050919050565b6000819050919050565b82818337600083830152505050565b60005b838110156136a657808201518184015260208101905061368b565b838111156136b5576000848401525b50505050565b600060028204905060018216806136d357607f821691505b602082108114156136e7576136e66137c5565b5b50919050565b6136f682613845565b810181811067ffffffffffffffff82111715613715576137146137f4565b5b80604052505050565b60006137298261366f565b91507fffffffffffffffffffffffffffffffffffffffffffffffffffffffffffffffff82141561375c5761375b613767565b5b600182019050919050565b7f4e487b7100000000000000000000000000000000000000000000000000000000600052601160045260246000fd5b7f4e487b7100000000000000000000000000000000000000000000000000000000600052601260045260246000fd5b7f4e487b7100000000000000000000000000000000000000000000000000000000600052602260045260246000fd5b7f4e487b7100000000000000000000000000000000000000000000000000000000600052604160045260246000fd5b600060033d11156138425760046000803e61383f600051613856565b90505b90565b6000601f19601f8301169050919050565b60008160e01c9050919050565b7f455243313135353a204552433131353552656365697665722072656a6563746560008201527f6420746f6b656e73000000000000000000000000000000000000000000000000602082015250565b7f222c20226465736372697074696f6e223a202200000000000000000000000000600082015250565b7f4f6e6c79206d696e7465722063616e20757064617465206d6574616461746100600082015250565b7f455243313135353a2061646472657373207a65726f206973206e6f742061207660008201527f616c6964206f776e657200000000000000000000000000000000000000000000602082015250565b7f455243313135353a2063616c6c6572206973206e6f7420746f6b656e206f776e60008201527f6572206f7220617070726f766564000000000000000000000000000000000000602082015250565b7f2200000000000000000000000000000000000000000000000000000000000000600082015250565b7f455243313135353a207472616e7366657220746f20746865207a65726f20616460008201527f6472657373000000000000000000000000000000000000000000000000000000602082015250565b7f2c2022696d616765223a20220000000000000000000000000000000000000000600082015250565b7f222c20226261636b67726f756e645f636f6c6f72223a20220000000000000000600082015250565b7f227d000000000000000000000000000000000000000000000000000000000000600082015250565b7f455243313135353a20696e73756666696369656e742062616c616e636520666f60008201527f72207472616e7366657200000000000000000000000000000000000000000000602082015250565b7f226e616d65223a20220000000000000000000000000000000000000000000000600082015250565b7f7b00000000000000000000000000000000000000000000000000000000000000600082015250565b7f646174613a6170706c69636174696f6e2f6a736f6e3b6261736536342c000000600082015250565b7f4f766572206578697374696e6720746f6b656e49640000000000000000000000600082015250565b7f455243313135353a2073657474696e6720617070726f76616c2073746174757360008201527f20666f722073656c660000000000000000000000000000000000000000000000602082015250565b7f455243313135353a206163636f756e747320616e6420696473206c656e67746860008201527f206d69736d617463680000000000000000000000000000000000000000000000602082015250565b7f455243313135353a2069647320616e6420616d6f756e7473206c656e6774682060008201527f6d69736d61746368000000000000000000000000000000000000000000000000602082015250565b7f455243313135353a206d696e7420746f20746865207a65726f2061646472657360008201527f7300000000000000000000000000000000000000000000000000000000000000602082015250565b7f455243313135353a207472616e7366657220746f206e6f6e2d4552433131353560008201527f526563656976657220696d706c656d656e746572000000000000000000000000602082015250565b7f222c2022616e696d6174696f6e5f75726c223a20220000000000000000000000600082015250565b600060443d1015613d4c57613dcf565b613d54613377565b60043d036004823e80513d602482011167ffffffffffffffff82111715613d7c575050613dcf565b808201805167ffffffffffffffff811115613d9a5750505050613dcf565b80602083010160043d038501811115613db7575050505050613dcf565b613dc6826020018501866136ed565b82955050505050505b90565b613ddb81613605565b8114613de657600080fd5b50565b613df281613617565b8114613dfd57600080fd5b50565b613e0981613623565b8114613e1457600080fd5b50565b613e208161366f565b8114613e2b57600080fd5b5056fe416e204e465420772f20494420257320686173206265656e206d696e74656420746f2025734142434445464748494a4b4c4d4e4f505152535455565758595a6162636465666768696a6b6c6d6e6f707172737475767778797a303132333435363738392b2fa264697066735822122094b17dd1837a9e0148c5da2b2f91139696d4b916084f9909edf73a65a7bea54a64736f6c634300080400334465706c6f79696e672061204d657461706c616e74734672656520636f6e7472616374",
  "linkReferences": {},
  "deployedLinkReferences": {}
}