{
  "_format": "hh-sol-artifact-1",
  "contractName": "MetaplantsFree",
  "sourceName": "contracts/MetaplantsFree.sol",
  "abi": [
    {
      "inputs": [],
      "stateMutability": "nonpayable",
      "type": "constructor"
    },
    {
      "anonymous": false,
      "inputs": [
        {
          "indexed": true,
          "internalType": "address",
          "name": "account",
          "type": "address"
        },
        {
          "indexed": true,
          "internalType": "address",
          "name": "operator",
          "type": "address"
        },
        {
          "indexed": false,
          "internalType": "bool",
          "name": "approved",
          "type": "bool"
        }
      ],
      "name": "ApprovalForAll",
      "type": "event"
    },
    {
      "anonymous": false,
      "inputs": [
        {
          "indexed": false,
          "internalType": "address",
          "name": "sender",
          "type": "address"
        },
        {
          "indexed": false,
          "internalType": "uint256",
          "name": "tokenId",
          "type": "uint256"
        }
      ],
      "name": "Mint",
      "type": "event"
    },
    {
      "anonymous": false,
      "inputs": [
        {
          "indexed": false,
          "internalType": "address",
          "name": "",
          "type": "address"
        },
        {
          "indexed": false,
          "internalType": "address[]",
          "name": "",
          "type": "address[]"
        },
        {
          "indexed": false,
          "internalType": "uint256[]",
          "name": "",
          "type": "uint256[]"
        },
        {
          "indexed": false,
          "internalType": "uint256[]",
          "name": "",
          "type": "uint256[]"
        },
        {
          "indexed": false,
          "internalType": "bytes",
          "name": "",
          "type": "bytes"
        }
      ],
      "name": "SafeBatchDistributeFrom",
      "type": "event"
    },
    {
      "anonymous": false,
      "inputs": [
        {
          "indexed": true,
          "internalType": "address",
          "name": "operator",
          "type": "address"
        },
        {
          "indexed": true,
          "internalType": "address",
          "name": "from",
          "type": "address"
        },
        {
          "indexed": true,
          "internalType": "address",
          "name": "to",
          "type": "address"
        },
        {
          "indexed": false,
          "internalType": "uint256[]",
          "name": "ids",
          "type": "uint256[]"
        },
        {
          "indexed": false,
          "internalType": "uint256[]",
          "name": "values",
          "type": "uint256[]"
        }
      ],
      "name": "TransferBatch",
      "type": "event"
    },
    {
      "anonymous": false,
      "inputs": [
        {
          "indexed": true,
          "internalType": "address",
          "name": "operator",
          "type": "address"
        },
        {
          "indexed": true,
          "internalType": "address",
          "name": "from",
          "type": "address"
        },
        {
          "indexed": true,
          "internalType": "address",
          "name": "to",
          "type": "address"
        },
        {
          "indexed": false,
          "internalType": "uint256",
          "name": "id",
          "type": "uint256"
        },
        {
          "indexed": false,
          "internalType": "uint256",
          "name": "value",
          "type": "uint256"
        }
      ],
      "name": "TransferSingle",
      "type": "event"
    },
    {
      "anonymous": false,
      "inputs": [
        {
          "indexed": false,
          "internalType": "string",
          "name": "value",
          "type": "string"
        },
        {
          "indexed": true,
          "internalType": "uint256",
          "name": "id",
          "type": "uint256"
        }
      ],
      "name": "URI",
      "type": "event"
    },
    {
      "anonymous": false,
      "inputs": [
        {
          "indexed": false,
          "internalType": "address",
          "name": "sender",
          "type": "address"
        },
        {
          "indexed": false,
          "internalType": "uint256",
          "name": "tokenId",
          "type": "uint256"
        }
      ],
      "name": "UpdateTokenURI",
      "type": "event"
    },
    {
      "inputs": [
        {
          "internalType": "address",
          "name": "account",
          "type": "address"
        },
        {
          "internalType": "uint256",
          "name": "id",
          "type": "uint256"
        }
      ],
      "name": "balanceOf",
      "outputs": [
        {
          "internalType": "uint256",
          "name": "",
          "type": "uint256"
        }
      ],
      "stateMutability": "view",
      "type": "function"
    },
    {
      "inputs": [
        {
          "internalType": "address[]",
          "name": "accounts",
          "type": "address[]"
        },
        {
          "internalType": "uint256[]",
          "name": "ids",
          "type": "uint256[]"
        }
      ],
      "name": "balanceOfBatch",
      "outputs": [
        {
          "internalType": "uint256[]",
          "name": "",
          "type": "uint256[]"
        }
      ],
      "stateMutability": "view",
      "type": "function"
    },
    {
      "inputs": [],
      "name": "getCounter",
      "outputs": [
        {
          "internalType": "uint256",
          "name": "",
          "type": "uint256"
        }
      ],
      "stateMutability": "view",
      "type": "function"
    },
    {
      "inputs": [
        {
          "internalType": "uint256",
          "name": "tokenId",
          "type": "uint256"
        }
      ],
      "name": "getIsValid",
      "outputs": [
        {
          "internalType": "bool",
          "name": "",
          "type": "bool"
        }
      ],
      "stateMutability": "view",
      "type": "function"
    },
    {
      "inputs": [
        {
          "internalType": "uint256",
          "name": "tokenId",
          "type": "uint256"
        }
      ],
      "name": "getMinter",
      "outputs": [
        {
          "internalType": "address",
          "name": "",
          "type": "address"
        }
      ],
      "stateMutability": "view",
      "type": "function"
    },
    {
      "inputs": [
        {
          "internalType": "uint256",
          "name": "tokenId",
          "type": "uint256"
        }
      ],
      "name": "getRecord",
      "outputs": [
        {
          "components": [
            {
              "internalType": "string",
              "name": "imageURI",
              "type": "string"
            },
            {
              "internalType": "string",
              "name": "animationURI",
              "type": "string"
            },
            {
              "internalType": "uint256",
              "name": "timestamp",
              "type": "uint256"
            }
          ],
          "internalType": "struct MetaplantsFree.Record[]",
          "name": "",
          "type": "tuple[]"
        }
      ],
      "stateMutability": "view",
      "type": "function"
    },
    {
      "inputs": [
        {
          "internalType": "address",
          "name": "account",
          "type": "address"
        },
        {
          "internalType": "address",
          "name": "operator",
          "type": "address"
        }
      ],
      "name": "isApprovedForAll",
      "outputs": [
        {
          "internalType": "bool",
          "name": "",
          "type": "bool"
        }
      ],
      "stateMutability": "view",
      "type": "function"
    },
    {
      "inputs": [
        {
          "internalType": "string",
          "name": "imageURI",
          "type": "string"
        },
        {
          "internalType": "string",
          "name": "animationURI",
          "type": "string"
        },
        {
          "internalType": "string",
          "name": "name",
          "type": "string"
        },
        {
          "internalType": "string",
          "name": "description",
          "type": "string"
        },
        {
          "internalType": "uint256",
          "name": "amount",
          "type": "uint256"
        }
      ],
      "name": "mint",
      "outputs": [],
      "stateMutability": "nonpayable",
      "type": "function"
    },
    {
      "inputs": [
        {
          "internalType": "address",
          "name": "from",
          "type": "address"
        },
        {
          "internalType": "address[]",
          "name": "toAddresses",
          "type": "address[]"
        },
        {
          "internalType": "uint256[]",
          "name": "ids",
          "type": "uint256[]"
        },
        {
          "internalType": "uint256[]",
          "name": "amounts",
          "type": "uint256[]"
        },
        {
          "internalType": "bytes",
          "name": "data",
          "type": "bytes"
        }
      ],
      "name": "safeBatchDistributeFrom",
      "outputs": [],
      "stateMutability": "nonpayable",
      "type": "function"
    },
    {
      "inputs": [
        {
          "internalType": "address",
          "name": "from",
          "type": "address"
        },
        {
          "internalType": "address",
          "name": "to",
          "type": "address"
        },
        {
          "internalType": "uint256[]",
          "name": "ids",
          "type": "uint256[]"
        },
        {
          "internalType": "uint256[]",
          "name": "amounts",
          "type": "uint256[]"
        },
        {
          "internalType": "bytes",
          "name": "data",
          "type": "bytes"
        }
      ],
      "name": "safeBatchTransferFrom",
      "outputs": [],
      "stateMutability": "nonpayable",
      "type": "function"
    },
    {
      "inputs": [
        {
          "internalType": "address",
          "name": "from",
          "type": "address"
        },
        {
          "internalType": "address",
          "name": "to",
          "type": "address"
        },
        {
          "internalType": "uint256",
          "name": "id",
          "type": "uint256"
        },
        {
          "internalType": "uint256",
          "name": "amount",
          "type": "uint256"
        },
        {
          "internalType": "bytes",
          "name": "data",
          "type": "bytes"
        }
      ],
      "name": "safeTransferFrom",
      "outputs": [],
      "stateMutability": "nonpayable",
      "type": "function"
    },
    {
      "inputs": [
        {
          "internalType": "address",
          "name": "operator",
          "type": "address"
        },
        {
          "internalType": "bool",
          "name": "approved",
          "type": "bool"
        }
      ],
      "name": "setApprovalForAll",
      "outputs": [],
      "stateMutability": "nonpayable",
      "type": "function"
    },
    {
      "inputs": [
        {
          "internalType": "bytes4",
          "name": "interfaceId",
          "type": "bytes4"
        }
      ],
      "name": "supportsInterface",
      "outputs": [
        {
          "internalType": "bool",
          "name": "",
          "type": "bool"
        }
      ],
      "stateMutability": "view",
      "type": "function"
    },
    {
      "inputs": [
        {
          "internalType": "uint256",
          "name": "tokenId",
          "type": "uint256"
        },
        {
          "internalType": "string",
          "name": "imageURI",
          "type": "string"
        },
        {
          "internalType": "string",
          "name": "animationURI",
          "type": "string"
        }
      ],
      "name": "updateTokenURI",
      "outputs": [],
      "stateMutability": "nonpayable",
      "type": "function"
    },
    {
      "inputs": [
        {
          "internalType": "uint256",
          "name": "tokenId",
          "type": "uint256"
        }
      ],
      "name": "uri",
      "outputs": [
        {
          "internalType": "string",
          "name": "",
          "type": "string"
        }
      ],
      "stateMutability": "view",
      "type": "function"
    }
  ],
  "bytecode": "0x60806040523480156200001157600080fd5b506040518060200160405280600081525062000033816200008560201b60201c565b506200007f6040518060400160405280601881526020017f54686973206973206d79204e465420636f6e74726163742e0000000000000000815250620000a160201b620012361760201c565b6200034a565b80600290805190602001906200009d9291906200016d565b5050565b6200014181604051602401620000b891906200025e565b6040516020818303038152906040527f41304fac000000000000000000000000000000000000000000000000000000007bffffffffffffffffffffffffffffffffffffffffffffffffffffffff19166020820180517bffffffffffffffffffffffffffffffffffffffffffffffffffffffff83818316178352505050506200014460201b60201c565b50565b60008151905060006a636f6e736f6c652e6c6f679050602083016000808483855afa5050505050565b8280546200017b90620002d4565b90600052602060002090601f0160209004810192826200019f5760008555620001eb565b82601f10620001ba57805160ff1916838001178555620001eb565b82800160010185558215620001eb579182015b82811115620001ea578251825591602001919060010190620001cd565b5b509050620001fa9190620001fe565b5090565b5b8082111562000219576000816000905550600101620001ff565b5090565b60006200022a8262000282565b6200023681856200028d565b9350620002488185602086016200029e565b620002538162000339565b840191505092915050565b600060208201905081810360008301526200027a81846200021d565b905092915050565b600081519050919050565b600082825260208201905092915050565b60005b83811015620002be578082015181840152602081019050620002a1565b83811115620002ce576000848401525b50505050565b60006002820490506001821680620002ed57607f821691505b602082108114156200030457620003036200030a565b5b50919050565b7f4e487b7100000000000000000000000000000000000000000000000000000000600052602260045260246000fd5b6000601f19601f8301169050919050565b61431c806200035a6000396000f3fe608060405234801561001057600080fd5b50600436106100f45760003560e01c80635b7121f811610097578063ac14dbdc11610066578063ac14dbdc146102a7578063e985e9c5146102d7578063f242432a14610307578063f936feb614610323576100f4565b80635b7121f81461022157806363b91615146102515780638ada066e1461026d578063a22cb4651461028b576100f4565b806307049fb5116100d357806307049fb5146101895780630e89341c146101a55780632eb2c2d6146101d55780634e1273f4146101f1576100f4565b8062fdd58e146100f957806301ffc9a71461012957806303e9e60914610159575b600080fd5b610113600480360381019061010e9190612a07565b61033f565b6040516101209190613721565b60405180910390f35b610143600480360381019061013e9190612aaf565b610408565b6040516101509190613506565b60405180910390f35b610173600480360381019061016e9190612bd8565b6104ea565b604051610180919061348b565b60405180910390f35b6101a3600480360381019061019e9190612c01565b61068a565b005b6101bf60048036038101906101ba9190612bd8565b610a08565b6040516101cc9190613521565b60405180910390f35b6101ef60048036038101906101ea91906127a6565b610aad565b005b61020b60048036038101906102069190612a43565b610b4e565b60405161021891906134ad565b60405180910390f35b61023b60048036038101906102369190612bd8565b610cff565b6040516102489190613316565b60405180910390f35b61026b600480360381019061026691906128f4565b610d6d565b005b610275610e1e565b6040516102829190613721565b60405180910390f35b6102a560048036038101906102a091906129cb565b610e2f565b005b6102c160048036038101906102bc9190612bd8565b610e45565b6040516102ce9190613506565b60405180910390f35b6102f160048036038101906102ec919061276a565b610ea8565b6040516102fe9190613506565b60405180910390f35b610321600480360381019061031c9190612865565b610f3c565b005b61033d60048036038101906103389190612b01565b610fdd565b005b60008073ffffffffffffffffffffffffffffffffffffffff168373ffffffffffffffffffffffffffffffffffffffff1614156103b0576040517f08c379a00000000000000000000000000000000000000000000000000000000081526004016103a7906135c1565b60405180910390fd5b60008083815260200190815260200160002060008473ffffffffffffffffffffffffffffffffffffffff1673ffffffffffffffffffffffffffffffffffffffff16815260200190815260200160002054905092915050565b60007fd9b67a26000000000000000000000000000000000000000000000000000000007bffffffffffffffffffffffffffffffffffffffffffffffffffffffff1916827bffffffffffffffffffffffffffffffffffffffffffffffffffffffff191614806104d357507f0e89341c000000000000000000000000000000000000000000000000000000007bffffffffffffffffffffffffffffffffffffffffffffffffffffffff1916827bffffffffffffffffffffffffffffffffffffffffffffffffffffffff1916145b806104e357506104e2826112cf565b5b9050919050565b606060086000838152602001908152602001600020805480602002602001604051908101604052809291908181526020016000905b8282101561067f578382906000526020600020906003020160405180606001604052908160008201805461055290613b0e565b80601f016020809104026020016040519081016040528092919081815260200182805461057e90613b0e565b80156105cb5780601f106105a0576101008083540402835291602001916105cb565b820191906000526020600020905b8154815290600101906020018083116105ae57829003601f168201915b505050505081526020016001820180546105e490613b0e565b80601f016020809104026020016040519081016040528092919081815260200182805461061090613b0e565b801561065d5780601f106106325761010080835404028352916020019161065d565b820191906000526020600020905b81548152906001019060200180831161064057829003601f168201915b505050505081526020016002820154815250508152602001906001019061051f565b505050509050919050565b60016106966003611339565b6106a09190613a24565b8311156106e2576040517f08c379a00000000000000000000000000000000000000000000000000000000081526004016106d990613641565b60405180910390fd5b6005838154811061071c577f4e487b7100000000000000000000000000000000000000000000000000000000600052603260045260246000fd5b9060005260206000200160009054906101000a900473ffffffffffffffffffffffffffffffffffffffff1673ffffffffffffffffffffffffffffffffffffffff163373ffffffffffffffffffffffffffffffffffffffff16146107b4576040517f08c379a00000000000000000000000000000000000000000000000000000000081526004016107ab906135a1565b60405180910390fd5b600683815481106107ee577f4e487b7100000000000000000000000000000000000000000000000000000000600052603260045260246000fd5b90600052602060002090602091828204019190069054906101000a900460ff1661084d576040517f08c379a0000000000000000000000000000000000000000000000000000000008152600401610844906136a1565b60405180910390fd5b61092d83610928848460048881548110610890577f4e487b7100000000000000000000000000000000000000000000000000000000600052603260045260246000fd5b9060005260206000200180546108a590613b0e565b80601f01602080910402602001604051908101604052809291908181526020018280546108d190613b0e565b801561091e5780601f106108f35761010080835404028352916020019161091e565b820191906000526020600020905b81548152906001019060200180831161090157829003601f168201915b5050505050611347565b6113a3565b60086000848152602001908152602001600020604051806060016040528084815260200183815260200142815250908060018154018082558091505060019003906000526020600020906003020160009091909190915060008201518160000190805190602001906109a0929190612462565b5060208201518160010190805190602001906109bd929190612462565b506040820151816002015550507ffcc700301bdb585fff781de6f961d84cda2143e06bdac09b371dcd3f6c661ca233846040516109fb929190613462565b60405180910390a1505050565b6060600760008381526020019081526020016000208054610a2890613b0e565b80601f0160208091040260200160405190810160405280929190818152602001828054610a5490613b0e565b8015610aa15780601f10610a7657610100808354040283529160200191610aa1565b820191906000526020600020905b815481529060010190602001808311610a8457829003601f168201915b50505050509050919050565b610ab56113cf565b73ffffffffffffffffffffffffffffffffffffffff168573ffffffffffffffffffffffffffffffffffffffff161480610afb5750610afa85610af56113cf565b610ea8565b5b610b3a576040517f08c379a0000000000000000000000000000000000000000000000000000000008152600401610b31906135e1565b60405180910390fd5b610b4785858585856113d7565b5050505050565b60608151835114610b94576040517f08c379a0000000000000000000000000000000000000000000000000000000008152600401610b8b90613681565b60405180910390fd5b6000835167ffffffffffffffff811115610bd7577f4e487b7100000000000000000000000000000000000000000000000000000000600052604160045260246000fd5b604051908082528060200260200182016040528015610c055781602001602082028036833780820191505090505b50905060005b8451811015610cf457610c9e858281518110610c50577f4e487b7100000000000000000000000000000000000000000000000000000000600052603260045260246000fd5b6020026020010151858381518110610c91577f4e487b7100000000000000000000000000000000000000000000000000000000600052603260045260246000fd5b602002602001015161033f565b828281518110610cd7577f4e487b7100000000000000000000000000000000000000000000000000000000600052603260045260246000fd5b60200260200101818152505080610ced90613b71565b9050610c0b565b508091505092915050565b600060058281548110610d3b577f4e487b7100000000000000000000000000000000000000000000000000000000600052603260045260246000fd5b9060005260206000200160009054906101000a900473ffffffffffffffffffffffffffffffffffffffff169050919050565b60005b8451811015610dd757610dc686868381518110610db6577f4e487b7100000000000000000000000000000000000000000000000000000000600052603260045260246000fd5b6020026020010151868686610aad565b80610dd090613b71565b9050610d70565b507fe9cc37c72517b260e8c6b7449767f519b86f22ec989025e956f2e7a57e41d6db3385858585604051610e0f9594939291906133f3565b60405180910390a15050505050565b6000610e2a6003611339565b905090565b610e41610e3a6113cf565b8383611745565b5050565b600060068281548110610e81577f4e487b7100000000000000000000000000000000000000000000000000000000600052603260045260246000fd5b90600052602060002090602091828204019190069054906101000a900460ff169050919050565b6000600160008473ffffffffffffffffffffffffffffffffffffffff1673ffffffffffffffffffffffffffffffffffffffff16815260200190815260200160002060008373ffffffffffffffffffffffffffffffffffffffff1673ffffffffffffffffffffffffffffffffffffffff16815260200190815260200160002060009054906101000a900460ff16905092915050565b610f446113cf565b73ffffffffffffffffffffffffffffffffffffffff168573ffffffffffffffffffffffffffffffffffffffff161480610f8a5750610f8985610f846113cf565b610ea8565b5b610fc9576040517f08c379a0000000000000000000000000000000000000000000000000000000008152600401610fc0906135e1565b60405180910390fd5b610fd685858585856118b2565b5050505050565b6000610fe96003611339565b905060008484604051602001611000929190613252565b6040516020818303038152906040529050600061101e888884611347565b905061103b33848660405180602001604052806000815250611b4e565b61104583826113a3565b6008600084815260200190815260200160002060405180606001604052808a815260200189815260200142815250908060018154018082558091505060019003906000526020600020906003020160009091909190915060008201518160000190805190602001906110b8929190612462565b5060208201518160010190805190602001906110d5929190612462565b5060408201518160020155505060048290806001815401808255809150506001900390600052602060002001600090919091909150908051906020019061111d929190612462565b506005339080600181540180825580915050600190039060005260206000200160009091909190916101000a81548173ffffffffffffffffffffffffffffffffffffffff021916908373ffffffffffffffffffffffffffffffffffffffff1602179055506006600190806001815401808255809150506001900390600052602060002090602091828204019190069091909190916101000a81548160ff0219169083151502179055506111e9604051806060016040528060258152602001614282602591398433611cff565b6111f36003611d9e565b7f0f6798a560793a54c3bcfe86a93cde1e73087d944c0ea20544137d41213968853384604051611224929190613462565b60405180910390a15050505050505050565b6112cc8160405160240161124a9190613521565b6040516020818303038152906040527f41304fac000000000000000000000000000000000000000000000000000000007bffffffffffffffffffffffffffffffffffffffffffffffffffffffff19166020820180517bffffffffffffffffffffffffffffffffffffffffffffffffffffffff8381831617835250505050611db4565b50565b60007f01ffc9a7000000000000000000000000000000000000000000000000000000007bffffffffffffffffffffffffffffffffffffffffffffffffffffffff1916827bffffffffffffffffffffffffffffffffffffffffffffffffffffffff1916149050919050565b600081600001549050919050565b6060600061137783868660405160200161136393929190613297565b604051602081830303815290604052611ddd565b90508060405160200161138a91906132f4565b6040516020818303038152906040529150509392505050565b806007600084815260200190815260200160002090805190602001906113ca929190612462565b505050565b600033905090565b815183511461141b576040517f08c379a0000000000000000000000000000000000000000000000000000000008152600401611412906136c1565b60405180910390fd5b600073ffffffffffffffffffffffffffffffffffffffff168473ffffffffffffffffffffffffffffffffffffffff16141561148b576040517f08c379a000000000000000000000000000000000000000000000000000000000815260040161148290613601565b60405180910390fd5b60006114956113cf565b90506114a5818787878787611f9b565b60005b84518110156116a25760008582815181106114ec577f4e487b7100000000000000000000000000000000000000000000000000000000600052603260045260246000fd5b602002602001015190506000858381518110611531577f4e487b7100000000000000000000000000000000000000000000000000000000600052603260045260246000fd5b60200260200101519050600080600084815260200190815260200160002060008b73ffffffffffffffffffffffffffffffffffffffff1673ffffffffffffffffffffffffffffffffffffffff168152602001908152602001600020549050818110156115d2576040517f08c379a00000000000000000000000000000000000000000000000000000000081526004016115c990613621565b60405180910390fd5b81810360008085815260200190815260200160002060008c73ffffffffffffffffffffffffffffffffffffffff1673ffffffffffffffffffffffffffffffffffffffff168152602001908152602001600020819055508160008085815260200190815260200160002060008b73ffffffffffffffffffffffffffffffffffffffff1673ffffffffffffffffffffffffffffffffffffffff16815260200190815260200160002060008282546116879190613943565b925050819055505050508061169b90613b71565b90506114a8565b508473ffffffffffffffffffffffffffffffffffffffff168673ffffffffffffffffffffffffffffffffffffffff168273ffffffffffffffffffffffffffffffffffffffff167f4a39dc06d4c0dbc64b70af90fd698a233a518aa5d07e595d983b8c0526c8f7fb87876040516117199291906134cf565b60405180910390a461172f818787878787611fa3565b61173d818787878787611fab565b505050505050565b8173ffffffffffffffffffffffffffffffffffffffff168373ffffffffffffffffffffffffffffffffffffffff1614156117b4576040517f08c379a00000000000000000000000000000000000000000000000000000000081526004016117ab90613661565b60405180910390fd5b80600160008573ffffffffffffffffffffffffffffffffffffffff1673ffffffffffffffffffffffffffffffffffffffff16815260200190815260200160002060008473ffffffffffffffffffffffffffffffffffffffff1673ffffffffffffffffffffffffffffffffffffffff16815260200190815260200160002060006101000a81548160ff0219169083151502179055508173ffffffffffffffffffffffffffffffffffffffff168373ffffffffffffffffffffffffffffffffffffffff167f17307eab39ab6107e8899845ad3d59bd9653f200f220920489ca2b5937696c31836040516118a59190613506565b60405180910390a3505050565b600073ffffffffffffffffffffffffffffffffffffffff168473ffffffffffffffffffffffffffffffffffffffff161415611922576040517f08c379a000000000000000000000000000000000000000000000000000000000815260040161191990613601565b60405180910390fd5b600061192c6113cf565b9050600061193985612192565b9050600061194685612192565b9050611956838989858589611f9b565b600080600088815260200190815260200160002060008a73ffffffffffffffffffffffffffffffffffffffff1673ffffffffffffffffffffffffffffffffffffffff168152602001908152602001600020549050858110156119ed576040517f08c379a00000000000000000000000000000000000000000000000000000000081526004016119e490613621565b60405180910390fd5b85810360008089815260200190815260200160002060008b73ffffffffffffffffffffffffffffffffffffffff1673ffffffffffffffffffffffffffffffffffffffff168152602001908152602001600020819055508560008089815260200190815260200160002060008a73ffffffffffffffffffffffffffffffffffffffff1673ffffffffffffffffffffffffffffffffffffffff1681526020019081526020016000206000828254611aa29190613943565b925050819055508773ffffffffffffffffffffffffffffffffffffffff168973ffffffffffffffffffffffffffffffffffffffff168573ffffffffffffffffffffffffffffffffffffffff167fc3d58168c5ae7397731d063d5bbf3d657854427343f4c083240f7aacaa2d0f628a8a604051611b1f92919061373c565b60405180910390a4611b35848a8a86868a611fa3565b611b43848a8a8a8a8a612258565b505050505050505050565b600073ffffffffffffffffffffffffffffffffffffffff168473ffffffffffffffffffffffffffffffffffffffff161415611bbe576040517f08c379a0000000000000000000000000000000000000000000000000000000008152600401611bb5906136e1565b60405180910390fd5b6000611bc86113cf565b90506000611bd585612192565b90506000611be285612192565b9050611bf383600089858589611f9b565b8460008088815260200190815260200160002060008973ffffffffffffffffffffffffffffffffffffffff1673ffffffffffffffffffffffffffffffffffffffff1681526020019081526020016000206000828254611c529190613943565b925050819055508673ffffffffffffffffffffffffffffffffffffffff16600073ffffffffffffffffffffffffffffffffffffffff168473ffffffffffffffffffffffffffffffffffffffff167fc3d58168c5ae7397731d063d5bbf3d657854427343f4c083240f7aacaa2d0f628989604051611cd092919061373c565b60405180910390a4611ce783600089858589611fa3565b611cf683600089898989612258565b50505050505050565b611d99838383604051602401611d1793929190613543565b6040516020818303038152906040527f1c7ec448000000000000000000000000000000000000000000000000000000007bffffffffffffffffffffffffffffffffffffffffffffffffffffffff19166020820180517bffffffffffffffffffffffffffffffffffffffffffffffffffffffff8381831617835250505050611db4565b505050565b6001816000016000828254019250508190555050565b60008151905060006a636f6e736f6c652e6c6f679050602083016000808483855afa5050505050565b60606000825190506000811415611e065760405180602001604052806000815250915050611f96565b60006003600283611e179190613943565b611e219190613999565b6004611e2d91906139ca565b90506000602082611e3e9190613943565b67ffffffffffffffff811115611e7d577f4e487b7100000000000000000000000000000000000000000000000000000000600052604160045260246000fd5b6040519080825280601f01601f191660200182016040528015611eaf5781602001600182028036833780820191505090505b50905060006040518060600160405280604081526020016142a7604091399050600181016020830160005b86811015611f535760038101905062ffffff818a015116603f8160121c168401518060081b905060ff603f83600c1c1686015116810190508060081b905060ff603f8360061c1686015116810190508060081b905060ff603f831686015116810190508060e01b90508084526004840193505050611eda565b506003860660018114611f6d5760028114611f7d57611f88565b613d3d60f01b6002830352611f88565b603d60f81b60018303525b508484525050819450505050505b919050565b505050505050565b505050505050565b611fca8473ffffffffffffffffffffffffffffffffffffffff1661243f565b1561218a578373ffffffffffffffffffffffffffffffffffffffff1663bc197c8187878686866040518663ffffffff1660e01b8152600401612010959493929190613331565b602060405180830381600087803b15801561202a57600080fd5b505af192505050801561205b57506040513d601f19601f820116820180604052508101906120589190612ad8565b60015b61210157612067613c76565b806308c379a014156120c4575061207c61418f565b8061208757506120c6565b806040517f08c379a00000000000000000000000000000000000000000000000000000000081526004016120bb9190613521565b60405180910390fd5b505b6040517f08c379a00000000000000000000000000000000000000000000000000000000081526004016120f890613701565b60405180910390fd5b63bc197c8160e01b7bffffffffffffffffffffffffffffffffffffffffffffffffffffffff1916817bffffffffffffffffffffffffffffffffffffffffffffffffffffffff191614612188576040517f08c379a000000000000000000000000000000000000000000000000000000000815260040161217f90613581565b60405180910390fd5b505b505050505050565b60606000600167ffffffffffffffff8111156121d7577f4e487b7100000000000000000000000000000000000000000000000000000000600052604160045260246000fd5b6040519080825280602002602001820160405280156122055781602001602082028036833780820191505090505b5090508281600081518110612243577f4e487b7100000000000000000000000000000000000000000000000000000000600052603260045260246000fd5b60200260200101818152505080915050919050565b6122778473ffffffffffffffffffffffffffffffffffffffff1661243f565b15612437578373ffffffffffffffffffffffffffffffffffffffff1663f23a6e6187878686866040518663ffffffff1660e01b81526004016122bd959493929190613399565b602060405180830381600087803b1580156122d757600080fd5b505af192505050801561230857506040513d601f19601f820116820180604052508101906123059190612ad8565b60015b6123ae57612314613c76565b806308c379a01415612371575061232961418f565b806123345750612373565b806040517f08c379a00000000000000000000000000000000000000000000000000000000081526004016123689190613521565b60405180910390fd5b505b6040517f08c379a00000000000000000000000000000000000000000000000000000000081526004016123a590613701565b60405180910390fd5b63f23a6e6160e01b7bffffffffffffffffffffffffffffffffffffffffffffffffffffffff1916817bffffffffffffffffffffffffffffffffffffffffffffffffffffffff191614612435576040517f08c379a000000000000000000000000000000000000000000000000000000000815260040161242c90613581565b60405180910390fd5b505b505050505050565b6000808273ffffffffffffffffffffffffffffffffffffffff163b119050919050565b82805461246e90613b0e565b90600052602060002090601f01602090048101928261249057600085556124d7565b82601f106124a957805160ff19168380011785556124d7565b828001600101855582156124d7579182015b828111156124d65782518255916020019190600101906124bb565b5b5090506124e491906124e8565b5090565b5b808211156125015760008160009055506001016124e9565b5090565b60006125186125138461378a565b613765565b9050808382526020820190508285602086028201111561253757600080fd5b60005b85811015612567578161254d8882612659565b84526020840193506020830192505060018101905061253a565b5050509392505050565b600061258461257f846137b6565b613765565b905080838252602082019050828560208602820111156125a357600080fd5b60005b858110156125d357816125b98882612755565b8452602084019350602083019250506001810190506125a6565b5050509392505050565b60006125f06125eb846137e2565b613765565b90508281526020810184848401111561260857600080fd5b612613848285613acc565b509392505050565b600061262e61262984613813565b613765565b90508281526020810184848401111561264657600080fd5b612651848285613acc565b509392505050565b60008135905061266881614225565b92915050565b600082601f83011261267f57600080fd5b813561268f848260208601612505565b91505092915050565b600082601f8301126126a957600080fd5b81356126b9848260208601612571565b91505092915050565b6000813590506126d18161423c565b92915050565b6000813590506126e681614253565b92915050565b6000815190506126fb81614253565b92915050565b600082601f83011261271257600080fd5b81356127228482602086016125dd565b91505092915050565b600082601f83011261273c57600080fd5b813561274c84826020860161261b565b91505092915050565b6000813590506127648161426a565b92915050565b6000806040838503121561277d57600080fd5b600061278b85828601612659565b925050602061279c85828601612659565b9150509250929050565b600080600080600060a086880312156127be57600080fd5b60006127cc88828901612659565b95505060206127dd88828901612659565b945050604086013567ffffffffffffffff8111156127fa57600080fd5b61280688828901612698565b935050606086013567ffffffffffffffff81111561282357600080fd5b61282f88828901612698565b925050608086013567ffffffffffffffff81111561284c57600080fd5b61285888828901612701565b9150509295509295909350565b600080600080600060a0868803121561287d57600080fd5b600061288b88828901612659565b955050602061289c88828901612659565b94505060406128ad88828901612755565b93505060606128be88828901612755565b925050608086013567ffffffffffffffff8111156128db57600080fd5b6128e788828901612701565b9150509295509295909350565b600080600080600060a0868803121561290c57600080fd5b600061291a88828901612659565b955050602086013567ffffffffffffffff81111561293757600080fd5b6129438882890161266e565b945050604086013567ffffffffffffffff81111561296057600080fd5b61296c88828901612698565b935050606086013567ffffffffffffffff81111561298957600080fd5b61299588828901612698565b925050608086013567ffffffffffffffff8111156129b257600080fd5b6129be88828901612701565b9150509295509295909350565b600080604083850312156129de57600080fd5b60006129ec85828601612659565b92505060206129fd858286016126c2565b9150509250929050565b60008060408385031215612a1a57600080fd5b6000612a2885828601612659565b9250506020612a3985828601612755565b9150509250929050565b60008060408385031215612a5657600080fd5b600083013567ffffffffffffffff811115612a7057600080fd5b612a7c8582860161266e565b925050602083013567ffffffffffffffff811115612a9957600080fd5b612aa585828601612698565b9150509250929050565b600060208284031215612ac157600080fd5b6000612acf848285016126d7565b91505092915050565b600060208284031215612aea57600080fd5b6000612af8848285016126ec565b91505092915050565b600080600080600060a08688031215612b1957600080fd5b600086013567ffffffffffffffff811115612b3357600080fd5b612b3f8882890161272b565b955050602086013567ffffffffffffffff811115612b5c57600080fd5b612b688882890161272b565b945050604086013567ffffffffffffffff811115612b8557600080fd5b612b918882890161272b565b935050606086013567ffffffffffffffff811115612bae57600080fd5b612bba8882890161272b565b9250506080612bcb88828901612755565b9150509295509295909350565b600060208284031215612bea57600080fd5b6000612bf884828501612755565b91505092915050565b600080600060608486031215612c1657600080fd5b6000612c2486828701612755565b935050602084013567ffffffffffffffff811115612c4157600080fd5b612c4d8682870161272b565b925050604084013567ffffffffffffffff811115612c6a57600080fd5b612c768682870161272b565b9150509250925092565b6000612c8c8383612cc4565b60208301905092915050565b6000612ca483836131dd565b905092915050565b6000612cb88383613234565b60208301905092915050565b612ccd81613a58565b82525050565b612cdc81613a58565b82525050565b6000612ced82613874565b612cf781856138d2565b9350612d0283613844565b8060005b83811015612d33578151612d1a8882612c80565b9750612d25836138ab565b925050600181019050612d06565b5085935050505092915050565b6000612d4b8261387f565b612d5581856138e3565b935083602082028501612d6785613854565b8060005b85811015612da35784840389528151612d848582612c98565b9450612d8f836138b8565b925060208a01995050600181019050612d6b565b50829750879550505050505092915050565b6000612dc08261388a565b612dca81856138f4565b9350612dd583613864565b8060005b83811015612e06578151612ded8882612cac565b9750612df8836138c5565b925050600181019050612dd9565b5085935050505092915050565b612e1c81613a6a565b82525050565b6000612e2d82613895565b612e378185613905565b9350612e47818560208601613adb565b612e5081613c98565b840191505092915050565b6000612e66826138a0565b612e708185613916565b9350612e80818560208601613adb565b612e8981613c98565b840191505092915050565b6000612e9f826138a0565b612ea98185613927565b9350612eb9818560208601613adb565b612ec281613c98565b840191505092915050565b6000612ed8826138a0565b612ee28185613938565b9350612ef2818560208601613adb565b80840191505092915050565b6000612f0b602883613927565b9150612f1682613cb6565b604082019050919050565b6000612f2e601383613938565b9150612f3982613d05565b601382019050919050565b6000612f51601f83613927565b9150612f5c82613d2e565b602082019050919050565b6000612f74602a83613927565b9150612f7f82613d57565b604082019050919050565b6000612f97602e83613927565b9150612fa282613da6565b604082019050919050565b6000612fba600183613938565b9150612fc582613df5565b600182019050919050565b6000612fdd602583613927565b9150612fe882613e1e565b604082019050919050565b6000613000600c83613938565b915061300b82613e6d565b600c82019050919050565b6000613023600283613938565b915061302e82613e96565b600282019050919050565b6000613046602a83613927565b915061305182613ebf565b604082019050919050565b6000613069600983613938565b915061307482613f0e565b600982019050919050565b600061308c600183613938565b915061309782613f37565b600182019050919050565b60006130af601d83613938565b91506130ba82613f60565b601d82019050919050565b60006130d2601583613927565b91506130dd82613f89565b602082019050919050565b60006130f5602983613927565b915061310082613fb2565b604082019050919050565b6000613118602983613927565b915061312382614001565b604082019050919050565b600061313b601083613927565b915061314682614050565b602082019050919050565b600061315e602883613927565b915061316982614079565b604082019050919050565b6000613181602183613927565b915061318c826140c8565b604082019050919050565b60006131a4603483613927565b91506131af82614117565b604082019050919050565b60006131c7601583613938565b91506131d282614166565b601582019050919050565b600060608301600083015184820360008601526131fa8282612e5b565b915050602083015184820360208601526132148282612e5b565b91505060408301516132296040860182613234565b508091505092915050565b61323d81613ac2565b82525050565b61324c81613ac2565b82525050565b600061325d8261305c565b91506132698285612ecd565b915061327482612f21565b91506132808284612ecd565b915061328b82612fad565b91508190509392505050565b60006132a28261307f565b91506132ae8286612ecd565b91506132b982612ff3565b91506132c58285612ecd565b91506132d0826131ba565b91506132dc8284612ecd565b91506132e782613016565b9150819050949350505050565b60006132ff826130a2565b915061330b8284612ecd565b915081905092915050565b600060208201905061332b6000830184612cd3565b92915050565b600060a0820190506133466000830188612cd3565b6133536020830187612cd3565b81810360408301526133658186612db5565b905081810360608301526133798185612db5565b9050818103608083015261338d8184612e22565b90509695505050505050565b600060a0820190506133ae6000830188612cd3565b6133bb6020830187612cd3565b6133c86040830186613243565b6133d56060830185613243565b81810360808301526133e78184612e22565b90509695505050505050565b600060a0820190506134086000830188612cd3565b818103602083015261341a8187612ce2565b9050818103604083015261342e8186612db5565b905081810360608301526134428185612db5565b905081810360808301526134568184612e22565b90509695505050505050565b60006040820190506134776000830185612cd3565b6134846020830184613243565b9392505050565b600060208201905081810360008301526134a58184612d40565b905092915050565b600060208201905081810360008301526134c78184612db5565b905092915050565b600060408201905081810360008301526134e98185612db5565b905081810360208301526134fd8184612db5565b90509392505050565b600060208201905061351b6000830184612e13565b92915050565b6000602082019050818103600083015261353b8184612e94565b905092915050565b6000606082019050818103600083015261355d8186612e94565b905061356c6020830185613243565b6135796040830184612cd3565b949350505050565b6000602082019050818103600083015261359a81612efe565b9050919050565b600060208201905081810360008301526135ba81612f44565b9050919050565b600060208201905081810360008301526135da81612f67565b9050919050565b600060208201905081810360008301526135fa81612f8a565b9050919050565b6000602082019050818103600083015261361a81612fd0565b9050919050565b6000602082019050818103600083015261363a81613039565b9050919050565b6000602082019050818103600083015261365a816130c5565b9050919050565b6000602082019050818103600083015261367a816130e8565b9050919050565b6000602082019050818103600083015261369a8161310b565b9050919050565b600060208201905081810360008301526136ba8161312e565b9050919050565b600060208201905081810360008301526136da81613151565b9050919050565b600060208201905081810360008301526136fa81613174565b9050919050565b6000602082019050818103600083015261371a81613197565b9050919050565b60006020820190506137366000830184613243565b92915050565b60006040820190506137516000830185613243565b61375e6020830184613243565b9392505050565b600061376f613780565b905061377b8282613b40565b919050565b6000604051905090565b600067ffffffffffffffff8211156137a5576137a4613c47565b5b602082029050602081019050919050565b600067ffffffffffffffff8211156137d1576137d0613c47565b5b602082029050602081019050919050565b600067ffffffffffffffff8211156137fd576137fc613c47565b5b61380682613c98565b9050602081019050919050565b600067ffffffffffffffff82111561382e5761382d613c47565b5b61383782613c98565b9050602081019050919050565b6000819050602082019050919050565b6000819050602082019050919050565b6000819050602082019050919050565b600081519050919050565b600081519050919050565b600081519050919050565b600081519050919050565b600081519050919050565b6000602082019050919050565b6000602082019050919050565b6000602082019050919050565b600082825260208201905092915050565b600082825260208201905092915050565b600082825260208201905092915050565b600082825260208201905092915050565b600082825260208201905092915050565b600082825260208201905092915050565b600081905092915050565b600061394e82613ac2565b915061395983613ac2565b9250827fffffffffffffffffffffffffffffffffffffffffffffffffffffffffffffffff0382111561398e5761398d613bba565b5b828201905092915050565b60006139a482613ac2565b91506139af83613ac2565b9250826139bf576139be613be9565b5b828204905092915050565b60006139d582613ac2565b91506139e083613ac2565b9250817fffffffffffffffffffffffffffffffffffffffffffffffffffffffffffffffff0483118215151615613a1957613a18613bba565b5b828202905092915050565b6000613a2f82613ac2565b9150613a3a83613ac2565b925082821015613a4d57613a4c613bba565b5b828203905092915050565b6000613a6382613aa2565b9050919050565b60008115159050919050565b60007fffffffff0000000000000000000000000000000000000000000000000000000082169050919050565b600073ffffffffffffffffffffffffffffffffffffffff82169050919050565b6000819050919050565b82818337600083830152505050565b60005b83811015613af9578082015181840152602081019050613ade565b83811115613b08576000848401525b50505050565b60006002820490506001821680613b2657607f821691505b60208210811415613b3a57613b39613c18565b5b50919050565b613b4982613c98565b810181811067ffffffffffffffff82111715613b6857613b67613c47565b5b80604052505050565b6000613b7c82613ac2565b91507fffffffffffffffffffffffffffffffffffffffffffffffffffffffffffffffff821415613baf57613bae613bba565b5b600182019050919050565b7f4e487b7100000000000000000000000000000000000000000000000000000000600052601160045260246000fd5b7f4e487b7100000000000000000000000000000000000000000000000000000000600052601260045260246000fd5b7f4e487b7100000000000000000000000000000000000000000000000000000000600052602260045260246000fd5b7f4e487b7100000000000000000000000000000000000000000000000000000000600052604160045260246000fd5b600060033d1115613c955760046000803e613c92600051613ca9565b90505b90565b6000601f19601f8301169050919050565b60008160e01c9050919050565b7f455243313135353a204552433131353552656365697665722072656a6563746560008201527f6420746f6b656e73000000000000000000000000000000000000000000000000602082015250565b7f222c20226465736372697074696f6e223a202200000000000000000000000000600082015250565b7f4f6e6c79206d696e7465722063616e20757064617465206d6574616461746100600082015250565b7f455243313135353a2061646472657373207a65726f206973206e6f742061207660008201527f616c6964206f776e657200000000000000000000000000000000000000000000602082015250565b7f455243313135353a2063616c6c6572206973206e6f7420746f6b656e206f776e60008201527f6572206f7220617070726f766564000000000000000000000000000000000000602082015250565b7f2200000000000000000000000000000000000000000000000000000000000000600082015250565b7f455243313135353a207472616e7366657220746f20746865207a65726f20616460008201527f6472657373000000000000000000000000000000000000000000000000000000602082015250565b7f2c2022696d616765223a20220000000000000000000000000000000000000000600082015250565b7f227d000000000000000000000000000000000000000000000000000000000000600082015250565b7f455243313135353a20696e73756666696369656e742062616c616e636520666f60008201527f72207472616e7366657200000000000000000000000000000000000000000000602082015250565b7f226e616d65223a20220000000000000000000000000000000000000000000000600082015250565b7f7b00000000000000000000000000000000000000000000000000000000000000600082015250565b7f646174613a6170706c69636174696f6e2f6a736f6e3b6261736536342c000000600082015250565b7f4f766572206578697374696e6720746f6b656e49640000000000000000000000600082015250565b7f455243313135353a2073657474696e6720617070726f76616c2073746174757360008201527f20666f722073656c660000000000000000000000000000000000000000000000602082015250565b7f455243313135353a206163636f756e747320616e6420696473206c656e67746860008201527f206d69736d617463680000000000000000000000000000000000000000000000602082015250565b7f546f6b656e20697320696e76616c696400000000000000000000000000000000600082015250565b7f455243313135353a2069647320616e6420616d6f756e7473206c656e6774682060008201527f6d69736d61746368000000000000000000000000000000000000000000000000602082015250565b7f455243313135353a206d696e7420746f20746865207a65726f2061646472657360008201527f7300000000000000000000000000000000000000000000000000000000000000602082015250565b7f455243313135353a207472616e7366657220746f206e6f6e2d4552433131353560008201527f526563656976657220696d706c656d656e746572000000000000000000000000602082015250565b7f222c2022616e696d6174696f6e5f75726c223a20220000000000000000000000600082015250565b600060443d101561419f57614222565b6141a7613780565b60043d036004823e80513d602482011167ffffffffffffffff821117156141cf575050614222565b808201805167ffffffffffffffff8111156141ed5750505050614222565b80602083010160043d03850181111561420a575050505050614222565b61421982602001850186613b40565b82955050505050505b90565b61422e81613a58565b811461423957600080fd5b50565b61424581613a6a565b811461425057600080fd5b50565b61425c81613a76565b811461426757600080fd5b50565b61427381613ac2565b811461427e57600080fd5b5056fe416e204e465420772f20494420257320686173206265656e206d696e74656420746f2025734142434445464748494a4b4c4d4e4f505152535455565758595a6162636465666768696a6b6c6d6e6f707172737475767778797a303132333435363738392b2fa2646970667358221220defd49744c279a5956badc9880db9d7cbf35dc53a574d037fb812ef2170a81ca64736f6c63430008040033",
  "linkReferences": {},
  "deployedLinkReferences": {}
}